{
  "_format": "hh-sol-artifact-1",
  "contractName": "NFTSS",
  "sourceName": "contracts/Nft.sol",
  "abi": [
    {
      "inputs": [
        {
          "internalType": "address",
          "name": "sender",
          "type": "address"
        },
        {
          "internalType": "uint256",
          "name": "tokenId",
          "type": "uint256"
        },
        {
          "internalType": "address",
          "name": "owner",
          "type": "address"
        }
      ],
      "name": "ERC721IncorrectOwner",
      "type": "error"
    },
    {
      "inputs": [
        {
          "internalType": "address",
          "name": "operator",
          "type": "address"
        },
        {
          "internalType": "uint256",
          "name": "tokenId",
          "type": "uint256"
        }
      ],
      "name": "ERC721InsufficientApproval",
      "type": "error"
    },
    {
      "inputs": [
        {
          "internalType": "address",
          "name": "approver",
          "type": "address"
        }
      ],
      "name": "ERC721InvalidApprover",
      "type": "error"
    },
    {
      "inputs": [
        {
          "internalType": "address",
          "name": "operator",
          "type": "address"
        }
      ],
      "name": "ERC721InvalidOperator",
      "type": "error"
    },
    {
      "inputs": [
        {
          "internalType": "address",
          "name": "owner",
          "type": "address"
        }
      ],
      "name": "ERC721InvalidOwner",
      "type": "error"
    },
    {
      "inputs": [
        {
          "internalType": "address",
          "name": "receiver",
          "type": "address"
        }
      ],
      "name": "ERC721InvalidReceiver",
      "type": "error"
    },
    {
      "inputs": [
        {
          "internalType": "address",
          "name": "sender",
          "type": "address"
        }
      ],
      "name": "ERC721InvalidSender",
      "type": "error"
    },
    {
      "inputs": [
        {
          "internalType": "uint256",
          "name": "tokenId",
          "type": "uint256"
        }
      ],
      "name": "ERC721NonexistentToken",
      "type": "error"
    },
    {
      "inputs": [],
      "name": "InvalidInitialization",
      "type": "error"
    },
    {
      "inputs": [],
      "name": "NotInitializing",
      "type": "error"
    },
    {
      "anonymous": false,
      "inputs": [
        {
          "components": [
            {
              "internalType": "address",
              "name": "creator",
              "type": "address"
            },
            {
              "internalType": "address",
              "name": "owner",
              "type": "address"
            },
            {
              "internalType": "uint256",
              "name": "price",
              "type": "uint256"
            },
            {
              "internalType": "string",
              "name": "uri",
              "type": "string"
            },
            {
              "internalType": "bool",
              "name": "isSold",
              "type": "bool"
            }
          ],
          "indexed": false,
          "internalType": "struct NFTSS.NFT",
          "name": "",
          "type": "tuple"
        }
      ],
      "name": "Added",
      "type": "event"
    },
    {
      "anonymous": false,
      "inputs": [
        {
          "indexed": true,
          "internalType": "address",
          "name": "owner",
          "type": "address"
        },
        {
          "indexed": true,
          "internalType": "address",
          "name": "approved",
          "type": "address"
        },
        {
          "indexed": true,
          "internalType": "uint256",
          "name": "tokenId",
          "type": "uint256"
        }
      ],
      "name": "Approval",
      "type": "event"
    },
    {
      "anonymous": false,
      "inputs": [
        {
          "indexed": true,
          "internalType": "address",
          "name": "owner",
          "type": "address"
        },
        {
          "indexed": true,
          "internalType": "address",
          "name": "operator",
          "type": "address"
        },
        {
          "indexed": false,
          "internalType": "bool",
          "name": "approved",
          "type": "bool"
        }
      ],
      "name": "ApprovalForAll",
      "type": "event"
    },
    {
      "anonymous": false,
      "inputs": [
        {
          "indexed": false,
          "internalType": "uint256",
          "name": "_fromTokenId",
          "type": "uint256"
        },
        {
          "indexed": false,
          "internalType": "uint256",
          "name": "_toTokenId",
          "type": "uint256"
        }
      ],
      "name": "BatchMetadataUpdate",
      "type": "event"
    },
    {
      "anonymous": false,
      "inputs": [
        {
          "indexed": false,
          "internalType": "uint64",
          "name": "version",
          "type": "uint64"
        }
      ],
      "name": "Initialized",
      "type": "event"
    },
    {
      "anonymous": false,
      "inputs": [
        {
          "indexed": false,
          "internalType": "uint256",
          "name": "_tokenId",
          "type": "uint256"
        }
      ],
      "name": "MetadataUpdate",
      "type": "event"
    },
    {
      "anonymous": false,
      "inputs": [
        {
          "indexed": true,
          "internalType": "address",
          "name": "from",
          "type": "address"
        },
        {
          "indexed": true,
          "internalType": "address",
          "name": "to",
          "type": "address"
        },
        {
          "indexed": true,
          "internalType": "uint256",
          "name": "tokenId",
          "type": "uint256"
        }
      ],
      "name": "Transfer",
      "type": "event"
    },
    {
      "inputs": [
        {
          "internalType": "string",
          "name": "uri",
          "type": "string"
        },
        {
          "internalType": "uint256",
          "name": "price",
          "type": "uint256"
        },
        {
          "internalType": "uint256",
          "name": "tokenId",
          "type": "uint256"
        }
      ],
      "name": "_createMarketItem",
      "outputs": [],
      "stateMutability": "nonpayable",
      "type": "function"
    },
    {
      "inputs": [
        {
          "internalType": "address",
          "name": "to",
          "type": "address"
        },
        {
          "internalType": "uint256",
          "name": "tokenId",
          "type": "uint256"
        }
      ],
      "name": "approve",
      "outputs": [],
      "stateMutability": "nonpayable",
      "type": "function"
    },
    {
      "inputs": [
        {
          "internalType": "address",
          "name": "owner",
          "type": "address"
        }
      ],
      "name": "balanceOf",
      "outputs": [
        {
          "internalType": "uint256",
          "name": "",
          "type": "uint256"
        }
      ],
      "stateMutability": "view",
      "type": "function"
    },
    {
      "inputs": [
        {
          "internalType": "string",
          "name": "uri",
          "type": "string"
        },
        {
          "internalType": "uint256",
          "name": "price",
          "type": "uint256"
        }
      ],
      "name": "createNFT",
      "outputs": [],
      "stateMutability": "payable",
      "type": "function"
    },
    {
      "inputs": [],
      "name": "getAllNftOfOwner",
      "outputs": [
        {
          "components": [
            {
              "internalType": "address",
              "name": "creator",
              "type": "address"
            },
            {
              "internalType": "address",
              "name": "owner",
              "type": "address"
            },
            {
              "internalType": "uint256",
              "name": "price",
              "type": "uint256"
            },
            {
              "internalType": "string",
              "name": "uri",
              "type": "string"
            },
            {
              "internalType": "bool",
              "name": "isSold",
              "type": "bool"
            }
          ],
          "internalType": "struct NFTSS.NFT[]",
          "name": "",
          "type": "tuple[]"
        }
      ],
      "stateMutability": "view",
      "type": "function"
    },
    {
      "inputs": [
        {
          "internalType": "uint256",
          "name": "tokenId",
          "type": "uint256"
        }
      ],
      "name": "getApproved",
      "outputs": [
        {
          "internalType": "address",
          "name": "",
          "type": "address"
        }
      ],
      "stateMutability": "view",
      "type": "function"
    },
    {
      "inputs": [],
      "name": "initialize",
      "outputs": [],
      "stateMutability": "nonpayable",
      "type": "function"
    },
    {
      "inputs": [
        {
          "internalType": "address",
          "name": "owner",
          "type": "address"
        },
        {
          "internalType": "address",
          "name": "operator",
          "type": "address"
        }
      ],
      "name": "isApprovedForAll",
      "outputs": [
        {
          "internalType": "bool",
          "name": "",
          "type": "bool"
        }
      ],
      "stateMutability": "view",
      "type": "function"
    },
    {
      "inputs": [
        {
          "internalType": "uint256",
          "name": "",
          "type": "uint256"
        }
      ],
      "name": "listedTokens",
      "outputs": [
        {
          "internalType": "address",
          "name": "creator",
          "type": "address"
        },
        {
          "internalType": "address",
          "name": "owner",
          "type": "address"
        },
        {
          "internalType": "uint256",
          "name": "price",
          "type": "uint256"
        },
        {
          "internalType": "string",
          "name": "uri",
          "type": "string"
        },
        {
          "internalType": "bool",
          "name": "isSold",
          "type": "bool"
        }
      ],
      "stateMutability": "view",
      "type": "function"
    },
    {
      "inputs": [],
      "name": "name",
      "outputs": [
        {
          "internalType": "string",
          "name": "",
          "type": "string"
        }
      ],
      "stateMutability": "view",
      "type": "function"
    },
    {
      "inputs": [
        {
          "internalType": "uint256",
          "name": "tokenId",
          "type": "uint256"
        }
      ],
      "name": "ownerOf",
      "outputs": [
        {
          "internalType": "address",
          "name": "",
          "type": "address"
        }
      ],
      "stateMutability": "view",
      "type": "function"
    },
    {
      "inputs": [
        {
          "internalType": "address",
          "name": "from",
          "type": "address"
        },
        {
          "internalType": "address",
          "name": "to",
          "type": "address"
        },
        {
          "internalType": "uint256",
          "name": "tokenId",
          "type": "uint256"
        }
      ],
      "name": "safeTransferFrom",
      "outputs": [],
      "stateMutability": "nonpayable",
      "type": "function"
    },
    {
      "inputs": [
        {
          "internalType": "address",
          "name": "from",
          "type": "address"
        },
        {
          "internalType": "address",
          "name": "to",
          "type": "address"
        },
        {
          "internalType": "uint256",
          "name": "tokenId",
          "type": "uint256"
        },
        {
          "internalType": "bytes",
          "name": "data",
          "type": "bytes"
        }
      ],
      "name": "safeTransferFrom",
      "outputs": [],
      "stateMutability": "nonpayable",
      "type": "function"
    },
    {
      "inputs": [
        {
          "internalType": "uint256",
          "name": "tokenId",
          "type": "uint256"
        }
      ],
      "name": "sellNFT",
      "outputs": [],
      "stateMutability": "payable",
      "type": "function"
    },
    {
      "inputs": [
        {
          "internalType": "address",
          "name": "operator",
          "type": "address"
        },
        {
          "internalType": "bool",
          "name": "approved",
          "type": "bool"
        }
      ],
      "name": "setApprovalForAll",
      "outputs": [],
      "stateMutability": "nonpayable",
      "type": "function"
    },
    {
      "inputs": [
        {
          "internalType": "bytes4",
          "name": "interfaceId",
          "type": "bytes4"
        }
      ],
      "name": "supportsInterface",
      "outputs": [
        {
          "internalType": "bool",
          "name": "",
          "type": "bool"
        }
      ],
      "stateMutability": "view",
      "type": "function"
    },
    {
      "inputs": [],
      "name": "symbol",
      "outputs": [
        {
          "internalType": "string",
          "name": "",
          "type": "string"
        }
      ],
      "stateMutability": "view",
      "type": "function"
    },
    {
      "inputs": [
        {
          "internalType": "uint256",
          "name": "tokenId",
          "type": "uint256"
        }
      ],
      "name": "tokenURI",
      "outputs": [
        {
          "internalType": "string",
          "name": "",
          "type": "string"
        }
      ],
      "stateMutability": "view",
      "type": "function"
    },
    {
      "inputs": [
        {
          "internalType": "address",
          "name": "from",
          "type": "address"
        },
        {
          "internalType": "address",
          "name": "to",
          "type": "address"
        },
        {
          "internalType": "uint256",
          "name": "tokenId",
          "type": "uint256"
        }
      ],
      "name": "transferFrom",
      "outputs": [],
      "stateMutability": "nonpayable",
      "type": "function"
    }
  ],
  "bytecode": "0x608060405234801561001057600080fd5b506139b2806100206000396000f3fe6080604052600436106101145760003560e01c806370a08231116100a0578063b88d4fde11610064578063b88d4fde146103a6578063c87b56dd146103cf578063e985e9c51461040c578063ee9cdfb314610449578063fcfd42ba1461046557610114565b806370a08231146102d3578063775dfdee146103105780638129fc1c1461033b57806395d89b4114610352578063a22cb4651461037d57610114565b806323b872dd116100e757806323b872dd146101e7578063268291551461021057806342842e0e1461022c5780635a9d1ac3146102555780636352211e1461029657610114565b806301ffc9a71461011957806306fdde0314610156578063081812fc14610181578063095ea7b3146101be575b600080fd5b34801561012557600080fd5b50610140600480360381019061013b9190612709565b61048e565b60405161014d9190612751565b60405180910390f35b34801561016257600080fd5b5061016b6104a0565b60405161017891906127fc565b60405180910390f35b34801561018d57600080fd5b506101a860048036038101906101a39190612854565b610541565b6040516101b591906128c2565b60405180910390f35b3480156101ca57600080fd5b506101e560048036038101906101e09190612909565b61055d565b005b3480156101f357600080fd5b5061020e60048036038101906102099190612949565b610573565b005b61022a60048036038101906102259190612ad1565b610675565b005b34801561023857600080fd5b50610253600480360381019061024e9190612949565b6106f8565b005b34801561026157600080fd5b5061027c60048036038101906102779190612854565b610718565b60405161028d959493929190612b3c565b60405180910390f35b3480156102a257600080fd5b506102bd60048036038101906102b89190612854565b610823565b6040516102ca91906128c2565b60405180910390f35b3480156102df57600080fd5b506102fa60048036038101906102f59190612b96565b610835565b6040516103079190612bc3565b60405180910390f35b34801561031c57600080fd5b506103256108fe565b6040516103329190612d8d565b60405180910390f35b34801561034757600080fd5b50610350610b33565b005b34801561035e57600080fd5b50610367610d39565b60405161037491906127fc565b60405180910390f35b34801561038957600080fd5b506103a4600480360381019061039f9190612ddb565b610dda565b005b3480156103b257600080fd5b506103cd60048036038101906103c89190612ebc565b610df0565b005b3480156103db57600080fd5b506103f660048036038101906103f19190612854565b610e0d565b60405161040391906127fc565b60405180910390f35b34801561041857600080fd5b50610433600480360381019061042e9190612f3f565b610e1f565b6040516104409190612751565b60405180910390f35b610463600480360381019061045e9190612854565b610ec1565b005b34801561047157600080fd5b5061048c60048036038101906104879190612f7f565b611070565b005b6000610499826111f6565b9050919050565b606060006104ac611257565b90508060000180546104bd9061301d565b80601f01602080910402602001604051908101604052809291908181526020018280546104e99061301d565b80156105365780601f1061050b57610100808354040283529160200191610536565b820191906000526020600020905b81548152906001019060200180831161051957829003601f168201915b505050505091505090565b600061054c8261127f565b5061055682611307565b9050919050565b61056f828261056a611352565b61135a565b5050565b600073ffffffffffffffffffffffffffffffffffffffff168273ffffffffffffffffffffffffffffffffffffffff16036105e55760006040517f64a0ae920000000000000000000000000000000000000000000000000000000081526004016105dc91906128c2565b60405180910390fd5b60006105f983836105f4611352565b61136c565b90508373ffffffffffffffffffffffffffffffffffffffff168173ffffffffffffffffffffffffffffffffffffffff161461066f578382826040517f64283d7b0000000000000000000000000000000000000000000000000000000081526004016106669392919061304e565b60405180910390fd5b50505050565b60035481116106b9576040517f08c379a00000000000000000000000000000000000000000000000000000000081526004016106b0906130f7565b60405180910390fd5b6000600260008154809291906106ce90613146565b9190505590506106de3082611599565b6106e88184611692565b6106f3838383611070565b505050565b61071383838360405180602001604052806000815250610df0565b505050565b60006020528060005260406000206000915090508060000160009054906101000a900473ffffffffffffffffffffffffffffffffffffffff16908060010160009054906101000a900473ffffffffffffffffffffffffffffffffffffffff169080600201549080600301805461078d9061301d565b80601f01602080910402602001604051908101604052809291908181526020018280546107b99061301d565b80156108065780601f106107db57610100808354040283529160200191610806565b820191906000526020600020905b8154815290600101906020018083116107e957829003601f168201915b5050505050908060040160009054906101000a900460ff16905085565b600061082e8261127f565b9050919050565b600080610840611257565b9050600073ffffffffffffffffffffffffffffffffffffffff168373ffffffffffffffffffffffffffffffffffffffff16036108b45760006040517f89c62b640000000000000000000000000000000000000000000000000000000081526004016108ab91906128c2565b60405180910390fd5b8060030160008473ffffffffffffffffffffffffffffffffffffffff1673ffffffffffffffffffffffffffffffffffffffff16815260200190815260200160002054915050919050565b6060600061090b30610835565b9050610916816116fd565b60008167ffffffffffffffff811115610932576109316129a6565b5b60405190808252806020026020018201604052801561096b57816020015b610958612636565b8152602001906001900390816109505790505b50905060005b82811015610b2a576000808281526020019081526020016000206040518060a00160405290816000820160009054906101000a900473ffffffffffffffffffffffffffffffffffffffff1673ffffffffffffffffffffffffffffffffffffffff1673ffffffffffffffffffffffffffffffffffffffff1681526020016001820160009054906101000a900473ffffffffffffffffffffffffffffffffffffffff1673ffffffffffffffffffffffffffffffffffffffff1673ffffffffffffffffffffffffffffffffffffffff16815260200160028201548152602001600382018054610a5c9061301d565b80601f0160208091040260200160405190810160405280929190818152602001828054610a889061301d565b8015610ad55780601f10610aaa57610100808354040283529160200191610ad5565b820191906000526020600020905b815481529060010190602001808311610ab857829003601f168201915b505050505081526020016004820160009054906101000a900460ff161515151581525050828281518110610b0c57610b0b61318e565b5b60200260200101819052508080610b2290613146565b915050610971565b50809250505090565b6000610b3d611796565b905060008160000160089054906101000a900460ff1615905060008260000160009054906101000a900467ffffffffffffffff1690506000808267ffffffffffffffff16148015610b8b5750825b9050600060018367ffffffffffffffff16148015610bc0575060003073ffffffffffffffffffffffffffffffffffffffff163b145b905081158015610bce575080155b15610c05576040517ff92ee8a900000000000000000000000000000000000000000000000000000000815260040160405180910390fd5b60018560000160006101000a81548167ffffffffffffffff021916908367ffffffffffffffff1602179055508315610c555760018560000160086101000a81548160ff0219169083151502179055505b610cc96040518060400160405280600781526020017f4d79546f6b656e000000000000000000000000000000000000000000000000008152506040518060400160405280600381526020017f4d544b00000000000000000000000000000000000000000000000000000000008152506117be565b655af3107a40006003819055508315610d325760008560000160086101000a81548160ff0219169083151502179055507fc7f505b2f371ae2175ee4913f4499e1f2633a7b5936321eed1cdaeb6115181d26001604051610d299190613216565b60405180910390a15b5050505050565b60606000610d45611257565b9050806001018054610d569061301d565b80601f0160208091040260200160405190810160405280929190818152602001828054610d829061301d565b8015610dcf5780601f10610da457610100808354040283529160200191610dcf565b820191906000526020600020905b815481529060010190602001808311610db257829003601f168201915b505050505091505090565b610dec610de5611352565b83836117d4565b5050565b610dfb848484610573565b610e0784848484611952565b50505050565b6060610e1882611b09565b9050919050565b600080610e2a611257565b90508060050160008573ffffffffffffffffffffffffffffffffffffffff1673ffffffffffffffffffffffffffffffffffffffff16815260200190815260200160002060008473ffffffffffffffffffffffffffffffffffffffff1673ffffffffffffffffffffffffffffffffffffffff16815260200190815260200160002060009054906101000a900460ff1691505092915050565b6000151560008083815260200190815260200160002060040160009054906101000a900460ff16151514610f2a576040517f08c379a0000000000000000000000000000000000000000000000000000000008152600401610f219061327d565b60405180910390fd5b6000806000838152602001908152602001600020600201549050600080600084815260200190815260200160002060000160009054906101000a900473ffffffffffffffffffffffffffffffffffffffff169050813414610fc0576040517f08c379a0000000000000000000000000000000000000000000000000000000008152600401610fb79061330f565b60405180910390fd5b610fcb303385611c2d565b600060035434610fdb919061332f565b90508173ffffffffffffffffffffffffffffffffffffffff166108fc829081150290604051600060405180830381858888f19350505050158015611023573d6000803e3d6000fd5b50600160008086815260200190815260200160002060040160006101000a81548160ff0219169083151502179055506001600081548092919061106590613146565b919050555050505050565b6040518060a001604052803373ffffffffffffffffffffffffffffffffffffffff1681526020013073ffffffffffffffffffffffffffffffffffffffff1681526020018381526020018481526020016000151581525060008083815260200190815260200160002060008201518160000160006101000a81548173ffffffffffffffffffffffffffffffffffffffff021916908373ffffffffffffffffffffffffffffffffffffffff16021790555060208201518160010160006101000a81548173ffffffffffffffffffffffffffffffffffffffff021916908373ffffffffffffffffffffffffffffffffffffffff1602179055506040820151816002015560608201518160030190816111859190613505565b5060808201518160040160006101000a81548160ff0219169083151502179055509050507f44232a4904f64391d4597e2686766ec1f556fbbb8c0938c2d0243f5b3497145a6000808381526020019081526020016000206040516111e99190613790565b60405180910390a1505050565b6000634906490660e01b7bffffffffffffffffffffffffffffffffffffffffffffffffffffffff1916827bffffffffffffffffffffffffffffffffffffffffffffffffffffffff19161480611250575061124f82611d9a565b5b9050919050565b60007f80bb2b638cc20bc4d0a60d66940f3ab4a00c1d7b313497ca82fb0b4ab0079300905090565b60008061128b83611e7c565b9050600073ffffffffffffffffffffffffffffffffffffffff168173ffffffffffffffffffffffffffffffffffffffff16036112fe57826040517f7e2732890000000000000000000000000000000000000000000000000000000081526004016112f59190612bc3565b60405180910390fd5b80915050919050565b600080611312611257565b905080600401600084815260200190815260200160002060009054906101000a900473ffffffffffffffffffffffffffffffffffffffff16915050919050565b600033905090565b6113678383836001611ec7565b505050565b600080611377611257565b9050600061138485611e7c565b9050600073ffffffffffffffffffffffffffffffffffffffff168473ffffffffffffffffffffffffffffffffffffffff16146113c6576113c581858761209b565b5b600073ffffffffffffffffffffffffffffffffffffffff168173ffffffffffffffffffffffffffffffffffffffff161461145957611408600086600080611ec7565b60018260030160008373ffffffffffffffffffffffffffffffffffffffff1673ffffffffffffffffffffffffffffffffffffffff168152602001908152602001600020600082825403925050819055505b600073ffffffffffffffffffffffffffffffffffffffff168673ffffffffffffffffffffffffffffffffffffffff16146114de5760018260030160008873ffffffffffffffffffffffffffffffffffffffff1673ffffffffffffffffffffffffffffffffffffffff168152602001908152602001600020600082825401925050819055505b8582600201600087815260200190815260200160002060006101000a81548173ffffffffffffffffffffffffffffffffffffffff021916908373ffffffffffffffffffffffffffffffffffffffff160217905550848673ffffffffffffffffffffffffffffffffffffffff168273ffffffffffffffffffffffffffffffffffffffff167fddf252ad1be2c89b69c2b068fc378daa952ba7f163c4a11628f55a4df523b3ef60405160405180910390a480925050509392505050565b600073ffffffffffffffffffffffffffffffffffffffff168273ffffffffffffffffffffffffffffffffffffffff160361160b5760006040517f64a0ae9200000000000000000000000000000000000000000000000000000000815260040161160291906128c2565b60405180910390fd5b60006116198383600061136c565b9050600073ffffffffffffffffffffffffffffffffffffffff168173ffffffffffffffffffffffffffffffffffffffff161461168d5760006040517f73c6ac6e00000000000000000000000000000000000000000000000000000000815260040161168491906128c2565b60405180910390fd5b505050565b600061169c61215f565b90508181600001600085815260200190815260200160002090816116c09190613505565b507ff8e1a15aba9398e019f0b49df1a4fde98ee17ae345cb5f6b5e2c27f5033e8ce7836040516116f09190612bc3565b60405180910390a1505050565b611793816040516024016117119190612bc3565b6040516020818303038152906040527ff82c50f1000000000000000000000000000000000000000000000000000000007bffffffffffffffffffffffffffffffffffffffffffffffffffffffff19166020820180517bffffffffffffffffffffffffffffffffffffffffffffffffffffffff8381831617835250505050612187565b50565b60007ff0c57e16840df040f15088dc2f81fe391c3923bec73e23a9662efc9c229c6a00905090565b6117c66121a1565b6117d082826121e1565b5050565b60006117de611257565b9050600073ffffffffffffffffffffffffffffffffffffffff168373ffffffffffffffffffffffffffffffffffffffff160361185157826040517f5b08ba1800000000000000000000000000000000000000000000000000000000815260040161184891906128c2565b60405180910390fd5b818160050160008673ffffffffffffffffffffffffffffffffffffffff1673ffffffffffffffffffffffffffffffffffffffff16815260200190815260200160002060008573ffffffffffffffffffffffffffffffffffffffff1673ffffffffffffffffffffffffffffffffffffffff16815260200190815260200160002060006101000a81548160ff0219169083151502179055508273ffffffffffffffffffffffffffffffffffffffff168473ffffffffffffffffffffffffffffffffffffffff167f17307eab39ab6107e8899845ad3d59bd9653f200f220920489ca2b5937696c31846040516119449190612751565b60405180910390a350505050565b60008373ffffffffffffffffffffffffffffffffffffffff163b1115611b03578273ffffffffffffffffffffffffffffffffffffffff1663150b7a02611996611352565b8685856040518563ffffffff1660e01b81526004016119b89493929190613807565b6020604051808303816000875af19250505080156119f457506040513d601f19601f820116820180604052508101906119f19190613868565b60015b611a78573d8060008114611a24576040519150601f19603f3d011682016040523d82523d6000602084013e611a29565b606091505b506000815103611a7057836040517f64a0ae92000000000000000000000000000000000000000000000000000000008152600401611a6791906128c2565b60405180910390fd5b805181602001fd5b63150b7a0260e01b7bffffffffffffffffffffffffffffffffffffffffffffffffffffffff1916817bffffffffffffffffffffffffffffffffffffffffffffffffffffffff191614611b0157836040517f64a0ae92000000000000000000000000000000000000000000000000000000008152600401611af891906128c2565b60405180910390fd5b505b50505050565b60606000611b1561215f565b9050611b208361127f565b5060008160000160008581526020019081526020016000208054611b439061301d565b80601f0160208091040260200160405190810160405280929190818152602001828054611b6f9061301d565b8015611bbc5780601f10611b9157610100808354040283529160200191611bbc565b820191906000526020600020905b815481529060010190602001808311611b9f57829003601f168201915b505050505090506000611bcd61221e565b90506000815103611be357819350505050611c28565b600082511115611c19578082604051602001611c009291906138d1565b6040516020818303038152906040529350505050611c28565b611c2285612235565b93505050505b919050565b600073ffffffffffffffffffffffffffffffffffffffff168273ffffffffffffffffffffffffffffffffffffffff1603611c9f5760006040517f64a0ae92000000000000000000000000000000000000000000000000000000008152600401611c9691906128c2565b60405180910390fd5b6000611cad8383600061136c565b9050600073ffffffffffffffffffffffffffffffffffffffff168173ffffffffffffffffffffffffffffffffffffffff1603611d2057816040517f7e273289000000000000000000000000000000000000000000000000000000008152600401611d179190612bc3565b60405180910390fd5b8373ffffffffffffffffffffffffffffffffffffffff168173ffffffffffffffffffffffffffffffffffffffff1614611d94578382826040517f64283d7b000000000000000000000000000000000000000000000000000000008152600401611d8b9392919061304e565b60405180910390fd5b50505050565b60007f80ac58cd000000000000000000000000000000000000000000000000000000007bffffffffffffffffffffffffffffffffffffffffffffffffffffffff1916827bffffffffffffffffffffffffffffffffffffffffffffffffffffffff19161480611e6557507f5b5e139f000000000000000000000000000000000000000000000000000000007bffffffffffffffffffffffffffffffffffffffffffffffffffffffff1916827bffffffffffffffffffffffffffffffffffffffffffffffffffffffff1916145b80611e755750611e748261229e565b5b9050919050565b600080611e87611257565b905080600201600084815260200190815260200160002060009054906101000a900473ffffffffffffffffffffffffffffffffffffffff16915050919050565b6000611ed1611257565b90508180611f0c5750600073ffffffffffffffffffffffffffffffffffffffff168373ffffffffffffffffffffffffffffffffffffffff1614155b15612040576000611f1c8561127f565b9050600073ffffffffffffffffffffffffffffffffffffffff168473ffffffffffffffffffffffffffffffffffffffff1614158015611f8757508373ffffffffffffffffffffffffffffffffffffffff168173ffffffffffffffffffffffffffffffffffffffff1614155b8015611f9a5750611f988185610e1f565b155b15611fdc57836040517fa9fbf51f000000000000000000000000000000000000000000000000000000008152600401611fd391906128c2565b60405180910390fd5b821561203e57848673ffffffffffffffffffffffffffffffffffffffff168273ffffffffffffffffffffffffffffffffffffffff167f8c5be1e5ebec7d5bd14f71427d1e84f3dd0314c0f7b2291e5b200ac8c7c3b92560405160405180910390a45b505b8481600401600086815260200190815260200160002060006101000a81548173ffffffffffffffffffffffffffffffffffffffff021916908373ffffffffffffffffffffffffffffffffffffffff1602179055505050505050565b6120a6838383612308565b61215a57600073ffffffffffffffffffffffffffffffffffffffff168373ffffffffffffffffffffffffffffffffffffffff160361211b57806040517f7e2732890000000000000000000000000000000000000000000000000000000081526004016121129190612bc3565b60405180910390fd5b81816040517f177e802f0000000000000000000000000000000000000000000000000000000081526004016121519291906138f5565b60405180910390fd5b505050565b60007f0542a41881ee128a365a727b282c86fa859579490b9bb45aab8503648c8e7900905090565b61219e816121966123c96123ea565b63ffffffff16565b50565b6121a96123f5565b6121df576040517fd7e6bcf800000000000000000000000000000000000000000000000000000000815260040160405180910390fd5b565b6121e96121a1565b60006121f3611257565b9050828160000190816122069190613505565b50818160010190816122189190613505565b50505050565b606060405180602001604052806000815250905090565b60606122408261127f565b50600061224b61221e565b9050600081511161226b5760405180602001604052806000815250612296565b8061227584612415565b6040516020016122869291906138d1565b6040516020818303038152906040525b915050919050565b60007f01ffc9a7000000000000000000000000000000000000000000000000000000007bffffffffffffffffffffffffffffffffffffffffffffffffffffffff1916827bffffffffffffffffffffffffffffffffffffffffffffffffffffffff1916149050919050565b60008073ffffffffffffffffffffffffffffffffffffffff168373ffffffffffffffffffffffffffffffffffffffff16141580156123c057508273ffffffffffffffffffffffffffffffffffffffff168473ffffffffffffffffffffffffffffffffffffffff16148061238157506123808484610e1f565b5b806123bf57508273ffffffffffffffffffffffffffffffffffffffff166123a783611307565b73ffffffffffffffffffffffffffffffffffffffff16145b5b90509392505050565b60006a636f6e736f6c652e6c6f679050600080835160208501845afa505050565b612693819050919050565b60006123ff611796565b60000160089054906101000a900460ff16905090565b606060006001612424846124e3565b01905060008167ffffffffffffffff811115612443576124426129a6565b5b6040519080825280601f01601f1916602001820160405280156124755781602001600182028036833780820191505090505b509050600082602001820190505b6001156124d8578080600190039150507f3031323334353637383961626364656600000000000000000000000000000000600a86061a8153600a85816124cc576124cb61391e565b5b04945060008503612483575b819350505050919050565b600080600090507a184f03e93ff9f4daa797ed6e38ed64bf6a1f0100000000000000008310612541577a184f03e93ff9f4daa797ed6e38ed64bf6a1f01000000000000000083816125375761253661391e565b5b0492506040810190505b6d04ee2d6d415b85acef8100000000831061257e576d04ee2d6d415b85acef810000000083816125745761257361391e565b5b0492506020810190505b662386f26fc1000083106125ad57662386f26fc1000083816125a3576125a261391e565b5b0492506010810190505b6305f5e10083106125d6576305f5e10083816125cc576125cb61391e565b5b0492506008810190505b61271083106125fb5761271083816125f1576125f061391e565b5b0492506004810190505b6064831061261e57606483816126145761261361391e565b5b0492506002810190505b600a831061262d576001810190505b80915050919050565b6040518060a00160405280600073ffffffffffffffffffffffffffffffffffffffff168152602001600073ffffffffffffffffffffffffffffffffffffffff16815260200160008152602001606081526020016000151581525090565b61269b61394d565b565b6000604051905090565b600080fd5b600080fd5b60007fffffffff0000000000000000000000000000000000000000000000000000000082169050919050565b6126e6816126b1565b81146126f157600080fd5b50565b600081359050612703816126dd565b92915050565b60006020828403121561271f5761271e6126a7565b5b600061272d848285016126f4565b91505092915050565b60008115159050919050565b61274b81612736565b82525050565b60006020820190506127666000830184612742565b92915050565b600081519050919050565b600082825260208201905092915050565b60005b838110156127a657808201518184015260208101905061278b565b60008484015250505050565b6000601f19601f8301169050919050565b60006127ce8261276c565b6127d88185612777565b93506127e8818560208601612788565b6127f1816127b2565b840191505092915050565b6000602082019050818103600083015261281681846127c3565b905092915050565b6000819050919050565b6128318161281e565b811461283c57600080fd5b50565b60008135905061284e81612828565b92915050565b60006020828403121561286a576128696126a7565b5b60006128788482850161283f565b91505092915050565b600073ffffffffffffffffffffffffffffffffffffffff82169050919050565b60006128ac82612881565b9050919050565b6128bc816128a1565b82525050565b60006020820190506128d760008301846128b3565b92915050565b6128e6816128a1565b81146128f157600080fd5b50565b600081359050612903816128dd565b92915050565b600080604083850312156129205761291f6126a7565b5b600061292e858286016128f4565b925050602061293f8582860161283f565b9150509250929050565b600080600060608486031215612962576129616126a7565b5b6000612970868287016128f4565b9350506020612981868287016128f4565b92505060406129928682870161283f565b9150509250925092565b600080fd5b600080fd5b7f4e487b7100000000000000000000000000000000000000000000000000000000600052604160045260246000fd5b6129de826127b2565b810181811067ffffffffffffffff821117156129fd576129fc6129a6565b5b80604052505050565b6000612a1061269d565b9050612a1c82826129d5565b919050565b600067ffffffffffffffff821115612a3c57612a3b6129a6565b5b612a45826127b2565b9050602081019050919050565b82818337600083830152505050565b6000612a74612a6f84612a21565b612a06565b905082815260208101848484011115612a9057612a8f6129a1565b5b612a9b848285612a52565b509392505050565b600082601f830112612ab857612ab761299c565b5b8135612ac8848260208601612a61565b91505092915050565b60008060408385031215612ae857612ae76126a7565b5b600083013567ffffffffffffffff811115612b0657612b056126ac565b5b612b1285828601612aa3565b9250506020612b238582860161283f565b9150509250929050565b612b368161281e565b82525050565b600060a082019050612b5160008301886128b3565b612b5e60208301876128b3565b612b6b6040830186612b2d565b8181036060830152612b7d81856127c3565b9050612b8c6080830184612742565b9695505050505050565b600060208284031215612bac57612bab6126a7565b5b6000612bba848285016128f4565b91505092915050565b6000602082019050612bd86000830184612b2d565b92915050565b600081519050919050565b600082825260208201905092915050565b6000819050602082019050919050565b612c13816128a1565b82525050565b612c228161281e565b82525050565b600082825260208201905092915050565b6000612c448261276c565b612c4e8185612c28565b9350612c5e818560208601612788565b612c67816127b2565b840191505092915050565b612c7b81612736565b82525050565b600060a083016000830151612c996000860182612c0a565b506020830151612cac6020860182612c0a565b506040830151612cbf6040860182612c19565b5060608301518482036060860152612cd78282612c39565b9150506080830151612cec6080860182612c72565b508091505092915050565b6000612d038383612c81565b905092915050565b6000602082019050919050565b6000612d2382612bde565b612d2d8185612be9565b935083602082028501612d3f85612bfa565b8060005b85811015612d7b5784840389528151612d5c8582612cf7565b9450612d6783612d0b565b925060208a01995050600181019050612d43565b50829750879550505050505092915050565b60006020820190508181036000830152612da78184612d18565b905092915050565b612db881612736565b8114612dc357600080fd5b50565b600081359050612dd581612daf565b92915050565b60008060408385031215612df257612df16126a7565b5b6000612e00858286016128f4565b9250506020612e1185828601612dc6565b9150509250929050565b600067ffffffffffffffff821115612e3657612e356129a6565b5b612e3f826127b2565b9050602081019050919050565b6000612e5f612e5a84612e1b565b612a06565b905082815260208101848484011115612e7b57612e7a6129a1565b5b612e86848285612a52565b509392505050565b600082601f830112612ea357612ea261299c565b5b8135612eb3848260208601612e4c565b91505092915050565b60008060008060808587031215612ed657612ed56126a7565b5b6000612ee4878288016128f4565b9450506020612ef5878288016128f4565b9350506040612f068782880161283f565b925050606085013567ffffffffffffffff811115612f2757612f266126ac565b5b612f3387828801612e8e565b91505092959194509250565b60008060408385031215612f5657612f556126a7565b5b6000612f64858286016128f4565b9250506020612f75858286016128f4565b9150509250929050565b600080600060608486031215612f9857612f976126a7565b5b600084013567ffffffffffffffff811115612fb657612fb56126ac565b5b612fc286828701612aa3565b9350506020612fd38682870161283f565b9250506040612fe48682870161283f565b9150509250925092565b7f4e487b7100000000000000000000000000000000000000000000000000000000600052602260045260246000fd5b6000600282049050600182168061303557607f821691505b60208210810361304857613047612fee565b5b50919050565b600060608201905061306360008301866128b3565b6130706020830185612b2d565b61307d60408301846128b3565b949350505050565b7f50726963652073686f756c642062652067726561746572207468616e206c697360008201527f74696e6720707269636500000000000000000000000000000000000000000000602082015250565b60006130e1602a83612777565b91506130ec82613085565b604082019050919050565b60006020820190508181036000830152613110816130d4565b9050919050565b7f4e487b7100000000000000000000000000000000000000000000000000000000600052601160045260246000fd5b60006131518261281e565b91507fffffffffffffffffffffffffffffffffffffffffffffffffffffffffffffffff820361318357613182613117565b5b600182019050919050565b7f4e487b7100000000000000000000000000000000000000000000000000000000600052603260045260246000fd5b6000819050919050565b600067ffffffffffffffff82169050919050565b6000819050919050565b60006132006131fb6131f6846131bd565b6131db565b6131c7565b9050919050565b613210816131e5565b82525050565b600060208201905061322b6000830184613207565b92915050565b7f4e465420616c726561647920736f6c6400000000000000000000000000000000600082015250565b6000613267601083612777565b915061327282613231565b602082019050919050565b600060208201905081810360008301526132968161325a565b9050919050565b7f506c656173652073656e64207468652065786163742061736b696e672070726960008201527f636520746f2070726f6365656400000000000000000000000000000000000000602082015250565b60006132f9602d83612777565b91506133048261329d565b604082019050919050565b60006020820190508181036000830152613328816132ec565b9050919050565b600061333a8261281e565b91506133458361281e565b925082820390508181111561335d5761335c613117565b5b92915050565b60008190508160005260206000209050919050565b60006020601f8301049050919050565b600082821b905092915050565b6000600883026133c57fffffffffffffffffffffffffffffffffffffffffffffffffffffffffffffffff82613388565b6133cf8683613388565b95508019841693508086168417925050509392505050565b60006134026133fd6133f88461281e565b6131db565b61281e565b9050919050565b6000819050919050565b61341c836133e7565b61343061342882613409565b848454613395565b825550505050565b600090565b613445613438565b613450818484613413565b505050565b5b818110156134745761346960008261343d565b600181019050613456565b5050565b601f8211156134b95761348a81613363565b61349384613378565b810160208510156134a2578190505b6134b66134ae85613378565b830182613455565b50505b505050565b600082821c905092915050565b60006134dc600019846008026134be565b1980831691505092915050565b60006134f583836134cb565b9150826002028217905092915050565b61350e8261276c565b67ffffffffffffffff811115613527576135266129a6565b5b613531825461301d565b61353c828285613478565b600060209050601f83116001811461356f576000841561355d578287015190505b61356785826134e9565b8655506135cf565b601f19841661357d86613363565b60005b828110156135a557848901518255600182019150602085019450602081019050613580565b868310156135c257848901516135be601f8916826134cb565b8355505b6001600288020188555050505b505050505050565b60008160001c9050919050565b600073ffffffffffffffffffffffffffffffffffffffff82169050919050565b6000613617613612836135d7565b6135e4565b9050919050565b6000819050919050565b600061363b613636836135d7565b61361e565b9050919050565b6000815461364f8161301d565b6136598186612c28565b94506001821660008114613674576001811461368a576136bd565b60ff1983168652811515602002860193506136bd565b61369385613363565b60005b838110156136b557815481890152600182019150602081019050613696565b808801955050505b50505092915050565b600060ff82169050919050565b60006136e66136e1836135d7565b6136c6565b9050919050565b600060a08301600080840154905061370481613604565b6137116000870182612c0a565b506001840154905061372281613604565b61372f6020870182612c0a565b506002840154905061374081613628565b61374d6040870182612c19565b506003840185830360608701526137648382613642565b92505060048401549050613777816136d3565b6137846080870182612c72565b50819250505092915050565b600060208201905081810360008301526137aa81846136ed565b905092915050565b600081519050919050565b600082825260208201905092915050565b60006137d9826137b2565b6137e381856137bd565b93506137f3818560208601612788565b6137fc816127b2565b840191505092915050565b600060808201905061381c60008301876128b3565b61382960208301866128b3565b6138366040830185612b2d565b818103606083015261384881846137ce565b905095945050505050565b600081519050613862816126dd565b92915050565b60006020828403121561387e5761387d6126a7565b5b600061388c84828501613853565b91505092915050565b600081905092915050565b60006138ab8261276c565b6138b58185613895565b93506138c5818560208601612788565b80840191505092915050565b60006138dd82856138a0565b91506138e982846138a0565b91508190509392505050565b600060408201905061390a60008301856128b3565b6139176020830184612b2d565b9392505050565b7f4e487b7100000000000000000000000000000000000000000000000000000000600052601260045260246000fd5b7f4e487b7100000000000000000000000000000000000000000000000000000000600052605160045260246000fdfea264697066735822122031b0ff9c47cacc1b754d635d73d1ea6f40d4cd9c99edc2ae931451cd2b2ac22d64736f6c63430008150033",
  "linkReferences": {},
  "deployedLinkReferences": {}
}