{
  "_format": "hh-sol-artifact-1",
  "contractName": "NFTSS",
  "sourceName": "contracts/Nft.sol",
  "abi": [
    {
      "inputs": [
        {
          "internalType": "address",
          "name": "sender",
          "type": "address"
        },
        {
          "internalType": "uint256",
          "name": "tokenId",
          "type": "uint256"
        },
        {
          "internalType": "address",
          "name": "owner",
          "type": "address"
        }
      ],
      "name": "ERC721IncorrectOwner",
      "type": "error"
    },
    {
      "inputs": [
        {
          "internalType": "address",
          "name": "operator",
          "type": "address"
        },
        {
          "internalType": "uint256",
          "name": "tokenId",
          "type": "uint256"
        }
      ],
      "name": "ERC721InsufficientApproval",
      "type": "error"
    },
    {
      "inputs": [
        {
          "internalType": "address",
          "name": "approver",
          "type": "address"
        }
      ],
      "name": "ERC721InvalidApprover",
      "type": "error"
    },
    {
      "inputs": [
        {
          "internalType": "address",
          "name": "operator",
          "type": "address"
        }
      ],
      "name": "ERC721InvalidOperator",
      "type": "error"
    },
    {
      "inputs": [
        {
          "internalType": "address",
          "name": "owner",
          "type": "address"
        }
      ],
      "name": "ERC721InvalidOwner",
      "type": "error"
    },
    {
      "inputs": [
        {
          "internalType": "address",
          "name": "receiver",
          "type": "address"
        }
      ],
      "name": "ERC721InvalidReceiver",
      "type": "error"
    },
    {
      "inputs": [
        {
          "internalType": "address",
          "name": "sender",
          "type": "address"
        }
      ],
      "name": "ERC721InvalidSender",
      "type": "error"
    },
    {
      "inputs": [
        {
          "internalType": "uint256",
          "name": "tokenId",
          "type": "uint256"
        }
      ],
      "name": "ERC721NonexistentToken",
      "type": "error"
    },
    {
      "inputs": [],
      "name": "InvalidInitialization",
      "type": "error"
    },
    {
      "inputs": [],
      "name": "NotInitializing",
      "type": "error"
    },
    {
      "anonymous": false,
      "inputs": [
        {
          "components": [
            {
              "internalType": "address",
              "name": "creator",
              "type": "address"
            },
            {
              "internalType": "address",
              "name": "owner",
              "type": "address"
            },
            {
              "internalType": "uint256",
              "name": "price",
              "type": "uint256"
            },
            {
              "internalType": "string",
              "name": "uri",
              "type": "string"
            },
            {
              "internalType": "bool",
              "name": "isSold",
              "type": "bool"
            },
            {
              "internalType": "uint256",
              "name": "tokenId",
              "type": "uint256"
            }
          ],
          "indexed": false,
          "internalType": "struct NFTSS.NFT",
          "name": "",
          "type": "tuple"
        }
      ],
      "name": "Added",
      "type": "event"
    },
    {
      "anonymous": false,
      "inputs": [
        {
          "indexed": true,
          "internalType": "address",
          "name": "owner",
          "type": "address"
        },
        {
          "indexed": true,
          "internalType": "address",
          "name": "approved",
          "type": "address"
        },
        {
          "indexed": true,
          "internalType": "uint256",
          "name": "tokenId",
          "type": "uint256"
        }
      ],
      "name": "Approval",
      "type": "event"
    },
    {
      "anonymous": false,
      "inputs": [
        {
          "indexed": true,
          "internalType": "address",
          "name": "owner",
          "type": "address"
        },
        {
          "indexed": true,
          "internalType": "address",
          "name": "operator",
          "type": "address"
        },
        {
          "indexed": false,
          "internalType": "bool",
          "name": "approved",
          "type": "bool"
        }
      ],
      "name": "ApprovalForAll",
      "type": "event"
    },
    {
      "anonymous": false,
      "inputs": [
        {
          "indexed": false,
          "internalType": "uint256",
          "name": "_fromTokenId",
          "type": "uint256"
        },
        {
          "indexed": false,
          "internalType": "uint256",
          "name": "_toTokenId",
          "type": "uint256"
        }
      ],
      "name": "BatchMetadataUpdate",
      "type": "event"
    },
    {
      "anonymous": false,
      "inputs": [
        {
          "indexed": false,
          "internalType": "uint64",
          "name": "version",
          "type": "uint64"
        }
      ],
      "name": "Initialized",
      "type": "event"
    },
    {
      "anonymous": false,
      "inputs": [
        {
          "indexed": false,
          "internalType": "uint256",
          "name": "_tokenId",
          "type": "uint256"
        }
      ],
      "name": "MetadataUpdate",
      "type": "event"
    },
    {
      "anonymous": false,
      "inputs": [
        {
          "indexed": true,
          "internalType": "address",
          "name": "from",
          "type": "address"
        },
        {
          "indexed": true,
          "internalType": "address",
          "name": "to",
          "type": "address"
        },
        {
          "indexed": true,
          "internalType": "uint256",
          "name": "tokenId",
          "type": "uint256"
        }
      ],
      "name": "Transfer",
      "type": "event"
    },
    {
      "inputs": [
        {
          "internalType": "string",
          "name": "uri",
          "type": "string"
        },
        {
          "internalType": "uint256",
          "name": "price",
          "type": "uint256"
        },
        {
          "internalType": "uint256",
          "name": "tokenId",
          "type": "uint256"
        }
      ],
      "name": "_createMarketItem",
      "outputs": [],
      "stateMutability": "nonpayable",
      "type": "function"
    },
    {
      "inputs": [
        {
          "internalType": "address",
          "name": "to",
          "type": "address"
        },
        {
          "internalType": "uint256",
          "name": "tokenId",
          "type": "uint256"
        }
      ],
      "name": "approve",
      "outputs": [],
      "stateMutability": "nonpayable",
      "type": "function"
    },
    {
      "inputs": [
        {
          "internalType": "address",
          "name": "owner",
          "type": "address"
        }
      ],
      "name": "balanceOf",
      "outputs": [
        {
          "internalType": "uint256",
          "name": "",
          "type": "uint256"
        }
      ],
      "stateMutability": "view",
      "type": "function"
    },
    {
      "inputs": [
        {
          "internalType": "string",
          "name": "uri",
          "type": "string"
        },
        {
          "internalType": "uint256",
          "name": "price",
          "type": "uint256"
        }
      ],
      "name": "createNFT",
      "outputs": [],
      "stateMutability": "payable",
      "type": "function"
    },
    {
      "inputs": [],
      "name": "getAllNftOfOwner",
      "outputs": [
        {
          "components": [
            {
              "internalType": "address",
              "name": "creator",
              "type": "address"
            },
            {
              "internalType": "address",
              "name": "owner",
              "type": "address"
            },
            {
              "internalType": "uint256",
              "name": "price",
              "type": "uint256"
            },
            {
              "internalType": "string",
              "name": "uri",
              "type": "string"
            },
            {
              "internalType": "bool",
              "name": "isSold",
              "type": "bool"
            },
            {
              "internalType": "uint256",
              "name": "tokenId",
              "type": "uint256"
            }
          ],
          "internalType": "struct NFTSS.NFT[]",
          "name": "",
          "type": "tuple[]"
        }
      ],
      "stateMutability": "view",
      "type": "function"
    },
    {
      "inputs": [
        {
          "internalType": "uint256",
          "name": "tokenId",
          "type": "uint256"
        }
      ],
      "name": "getApproved",
      "outputs": [
        {
          "internalType": "address",
          "name": "",
          "type": "address"
        }
      ],
      "stateMutability": "view",
      "type": "function"
    },
    {
      "inputs": [],
      "name": "initialize",
      "outputs": [],
      "stateMutability": "nonpayable",
      "type": "function"
    },
    {
      "inputs": [
        {
          "internalType": "address",
          "name": "owner",
          "type": "address"
        },
        {
          "internalType": "address",
          "name": "operator",
          "type": "address"
        }
      ],
      "name": "isApprovedForAll",
      "outputs": [
        {
          "internalType": "bool",
          "name": "",
          "type": "bool"
        }
      ],
      "stateMutability": "view",
      "type": "function"
    },
    {
      "inputs": [
        {
          "internalType": "uint256",
          "name": "",
          "type": "uint256"
        }
      ],
      "name": "listedTokens",
      "outputs": [
        {
          "internalType": "address",
          "name": "creator",
          "type": "address"
        },
        {
          "internalType": "address",
          "name": "owner",
          "type": "address"
        },
        {
          "internalType": "uint256",
          "name": "price",
          "type": "uint256"
        },
        {
          "internalType": "string",
          "name": "uri",
          "type": "string"
        },
        {
          "internalType": "bool",
          "name": "isSold",
          "type": "bool"
        },
        {
          "internalType": "uint256",
          "name": "tokenId",
          "type": "uint256"
        }
      ],
      "stateMutability": "view",
      "type": "function"
    },
    {
      "inputs": [],
      "name": "name",
      "outputs": [
        {
          "internalType": "string",
          "name": "",
          "type": "string"
        }
      ],
      "stateMutability": "view",
      "type": "function"
    },
    {
      "inputs": [
        {
          "internalType": "uint256",
          "name": "tokenId",
          "type": "uint256"
        }
      ],
      "name": "ownerOf",
      "outputs": [
        {
          "internalType": "address",
          "name": "",
          "type": "address"
        }
      ],
      "stateMutability": "view",
      "type": "function"
    },
    {
      "inputs": [
        {
          "internalType": "address",
          "name": "from",
          "type": "address"
        },
        {
          "internalType": "address",
          "name": "to",
          "type": "address"
        },
        {
          "internalType": "uint256",
          "name": "tokenId",
          "type": "uint256"
        }
      ],
      "name": "safeTransferFrom",
      "outputs": [],
      "stateMutability": "nonpayable",
      "type": "function"
    },
    {
      "inputs": [
        {
          "internalType": "address",
          "name": "from",
          "type": "address"
        },
        {
          "internalType": "address",
          "name": "to",
          "type": "address"
        },
        {
          "internalType": "uint256",
          "name": "tokenId",
          "type": "uint256"
        },
        {
          "internalType": "bytes",
          "name": "data",
          "type": "bytes"
        }
      ],
      "name": "safeTransferFrom",
      "outputs": [],
      "stateMutability": "nonpayable",
      "type": "function"
    },
    {
      "inputs": [
        {
          "internalType": "uint256",
          "name": "tokenId",
          "type": "uint256"
        }
      ],
      "name": "sellNFT",
      "outputs": [],
      "stateMutability": "payable",
      "type": "function"
    },
    {
      "inputs": [
        {
          "internalType": "address",
          "name": "operator",
          "type": "address"
        },
        {
          "internalType": "bool",
          "name": "approved",
          "type": "bool"
        }
      ],
      "name": "setApprovalForAll",
      "outputs": [],
      "stateMutability": "nonpayable",
      "type": "function"
    },
    {
      "inputs": [
        {
          "internalType": "bytes4",
          "name": "interfaceId",
          "type": "bytes4"
        }
      ],
      "name": "supportsInterface",
      "outputs": [
        {
          "internalType": "bool",
          "name": "",
          "type": "bool"
        }
      ],
      "stateMutability": "view",
      "type": "function"
    },
    {
      "inputs": [],
      "name": "symbol",
      "outputs": [
        {
          "internalType": "string",
          "name": "",
          "type": "string"
        }
      ],
      "stateMutability": "view",
      "type": "function"
    },
    {
      "inputs": [
        {
          "internalType": "uint256",
          "name": "tokenId",
          "type": "uint256"
        }
      ],
      "name": "tokenURI",
      "outputs": [
        {
          "internalType": "string",
          "name": "",
          "type": "string"
        }
      ],
      "stateMutability": "view",
      "type": "function"
    },
    {
      "inputs": [
        {
          "internalType": "address",
          "name": "from",
          "type": "address"
        },
        {
          "internalType": "address",
          "name": "to",
          "type": "address"
        },
        {
          "internalType": "uint256",
          "name": "tokenId",
          "type": "uint256"
        }
      ],
      "name": "transferFrom",
      "outputs": [],
      "stateMutability": "nonpayable",
      "type": "function"
    }
  ],
  "bytecode": "0x608060405234801561001057600080fd5b50613a19806100206000396000f3fe6080604052600436106101145760003560e01c806370a08231116100a0578063b88d4fde11610064578063b88d4fde146103a7578063c87b56dd146103d0578063e985e9c51461040d578063ee9cdfb31461044a578063fcfd42ba1461046657610114565b806370a08231146102d4578063775dfdee146103115780638129fc1c1461033c57806395d89b4114610353578063a22cb4651461037e57610114565b806323b872dd116100e757806323b872dd146101e7578063268291551461021057806342842e0e1461022c5780635a9d1ac3146102555780636352211e1461029757610114565b806301ffc9a71461011957806306fdde0314610156578063081812fc14610181578063095ea7b3146101be575b600080fd5b34801561012557600080fd5b50610140600480360381019061013b9190612731565b61048f565b60405161014d9190612779565b60405180910390f35b34801561016257600080fd5b5061016b6104a1565b6040516101789190612824565b60405180910390f35b34801561018d57600080fd5b506101a860048036038101906101a3919061287c565b610542565b6040516101b591906128ea565b60405180910390f35b3480156101ca57600080fd5b506101e560048036038101906101e09190612931565b61055e565b005b3480156101f357600080fd5b5061020e60048036038101906102099190612971565b610574565b005b61022a60048036038101906102259190612af9565b610676565b005b34801561023857600080fd5b50610253600480360381019061024e9190612971565b6106f9565b005b34801561026157600080fd5b5061027c6004803603810190610277919061287c565b610719565b60405161028e96959493929190612b64565b60405180910390f35b3480156102a357600080fd5b506102be60048036038101906102b9919061287c565b61082a565b6040516102cb91906128ea565b60405180910390f35b3480156102e057600080fd5b506102fb60048036038101906102f69190612bcc565b61083c565b6040516103089190612bf9565b60405180910390f35b34801561031d57600080fd5b50610326610905565b6040516103339190612dd6565b60405180910390f35b34801561034857600080fd5b50610351610b44565b005b34801561035f57600080fd5b50610368610d4a565b6040516103759190612824565b60405180910390f35b34801561038a57600080fd5b506103a560048036038101906103a09190612e24565b610deb565b005b3480156103b357600080fd5b506103ce60048036038101906103c99190612f05565b610e01565b005b3480156103dc57600080fd5b506103f760048036038101906103f2919061287c565b610e1e565b6040516104049190612824565b60405180910390f35b34801561041957600080fd5b50610434600480360381019061042f9190612f88565b610e30565b6040516104419190612779565b60405180910390f35b610464600480360381019061045f919061287c565b610ed2565b005b34801561047257600080fd5b5061048d60048036038101906104889190612fc8565b611081565b005b600061049a82611217565b9050919050565b606060006104ad611278565b90508060000180546104be90613066565b80601f01602080910402602001604051908101604052809291908181526020018280546104ea90613066565b80156105375780601f1061050c57610100808354040283529160200191610537565b820191906000526020600020905b81548152906001019060200180831161051a57829003601f168201915b505050505091505090565b600061054d826112a0565b5061055782611328565b9050919050565b610570828261056b611373565b61137b565b5050565b600073ffffffffffffffffffffffffffffffffffffffff168273ffffffffffffffffffffffffffffffffffffffff16036105e65760006040517f64a0ae920000000000000000000000000000000000000000000000000000000081526004016105dd91906128ea565b60405180910390fd5b60006105fa83836105f5611373565b61138d565b90508373ffffffffffffffffffffffffffffffffffffffff168173ffffffffffffffffffffffffffffffffffffffff1614610670578382826040517f64283d7b00000000000000000000000000000000000000000000000000000000815260040161066793929190613097565b60405180910390fd5b50505050565b60035481116106ba576040517f08c379a00000000000000000000000000000000000000000000000000000000081526004016106b190613140565b60405180910390fd5b6000600260008154809291906106cf9061318f565b9190505590506106df30826115ba565b6106e981846116b3565b6106f4838383611081565b505050565b61071483838360405180602001604052806000815250610e01565b505050565b60006020528060005260406000206000915090508060000160009054906101000a900473ffffffffffffffffffffffffffffffffffffffff16908060010160009054906101000a900473ffffffffffffffffffffffffffffffffffffffff169080600201549080600301805461078e90613066565b80601f01602080910402602001604051908101604052809291908181526020018280546107ba90613066565b80156108075780601f106107dc57610100808354040283529160200191610807565b820191906000526020600020905b8154815290600101906020018083116107ea57829003601f168201915b5050505050908060040160009054906101000a900460ff16908060050154905086565b6000610835826112a0565b9050919050565b600080610847611278565b9050600073ffffffffffffffffffffffffffffffffffffffff168373ffffffffffffffffffffffffffffffffffffffff16036108bb5760006040517f89c62b640000000000000000000000000000000000000000000000000000000081526004016108b291906128ea565b60405180910390fd5b8060030160008473ffffffffffffffffffffffffffffffffffffffff1673ffffffffffffffffffffffffffffffffffffffff16815260200190815260200160002054915050919050565b606060006109123061083c565b905061091d8161171e565b60008167ffffffffffffffff811115610939576109386129ce565b5b60405190808252806020026020018201604052801561097257816020015b61095f612657565b8152602001906001900390816109575790505b50905060005b82811015610b3b576000808281526020019081526020016000206040518060c00160405290816000820160009054906101000a900473ffffffffffffffffffffffffffffffffffffffff1673ffffffffffffffffffffffffffffffffffffffff1673ffffffffffffffffffffffffffffffffffffffff1681526020016001820160009054906101000a900473ffffffffffffffffffffffffffffffffffffffff1673ffffffffffffffffffffffffffffffffffffffff1673ffffffffffffffffffffffffffffffffffffffff16815260200160028201548152602001600382018054610a6390613066565b80601f0160208091040260200160405190810160405280929190818152602001828054610a8f90613066565b8015610adc5780601f10610ab157610100808354040283529160200191610adc565b820191906000526020600020905b815481529060010190602001808311610abf57829003601f168201915b505050505081526020016004820160009054906101000a900460ff16151515158152602001600582015481525050828281518110610b1d57610b1c6131d7565b5b60200260200101819052508080610b339061318f565b915050610978565b50809250505090565b6000610b4e6117b7565b905060008160000160089054906101000a900460ff1615905060008260000160009054906101000a900467ffffffffffffffff1690506000808267ffffffffffffffff16148015610b9c5750825b9050600060018367ffffffffffffffff16148015610bd1575060003073ffffffffffffffffffffffffffffffffffffffff163b145b905081158015610bdf575080155b15610c16576040517ff92ee8a900000000000000000000000000000000000000000000000000000000815260040160405180910390fd5b60018560000160006101000a81548167ffffffffffffffff021916908367ffffffffffffffff1602179055508315610c665760018560000160086101000a81548160ff0219169083151502179055505b610cda6040518060400160405280600781526020017f4d79546f6b656e000000000000000000000000000000000000000000000000008152506040518060400160405280600381526020017f4d544b00000000000000000000000000000000000000000000000000000000008152506117df565b655af3107a40006003819055508315610d435760008560000160086101000a81548160ff0219169083151502179055507fc7f505b2f371ae2175ee4913f4499e1f2633a7b5936321eed1cdaeb6115181d26001604051610d3a919061325f565b60405180910390a15b5050505050565b60606000610d56611278565b9050806001018054610d6790613066565b80601f0160208091040260200160405190810160405280929190818152602001828054610d9390613066565b8015610de05780601f10610db557610100808354040283529160200191610de0565b820191906000526020600020905b815481529060010190602001808311610dc357829003601f168201915b505050505091505090565b610dfd610df6611373565b83836117f5565b5050565b610e0c848484610574565b610e1884848484611973565b50505050565b6060610e2982611b2a565b9050919050565b600080610e3b611278565b90508060050160008573ffffffffffffffffffffffffffffffffffffffff1673ffffffffffffffffffffffffffffffffffffffff16815260200190815260200160002060008473ffffffffffffffffffffffffffffffffffffffff1673ffffffffffffffffffffffffffffffffffffffff16815260200190815260200160002060009054906101000a900460ff1691505092915050565b6000151560008083815260200190815260200160002060040160009054906101000a900460ff16151514610f3b576040517f08c379a0000000000000000000000000000000000000000000000000000000008152600401610f32906132c6565b60405180910390fd5b6000806000838152602001908152602001600020600201549050600080600084815260200190815260200160002060000160009054906101000a900473ffffffffffffffffffffffffffffffffffffffff169050813414610fd1576040517f08c379a0000000000000000000000000000000000000000000000000000000008152600401610fc890613358565b60405180910390fd5b610fdc303385611c4e565b600060035434610fec9190613378565b90508173ffffffffffffffffffffffffffffffffffffffff166108fc829081150290604051600060405180830381858888f19350505050158015611034573d6000803e3d6000fd5b50600160008086815260200190815260200160002060040160006101000a81548160ff021916908315150217905550600160008154809291906110769061318f565b919050555050505050565b6040518060c001604052803373ffffffffffffffffffffffffffffffffffffffff1681526020013073ffffffffffffffffffffffffffffffffffffffff1681526020018381526020018481526020016000151581526020018281525060008083815260200190815260200160002060008201518160000160006101000a81548173ffffffffffffffffffffffffffffffffffffffff021916908373ffffffffffffffffffffffffffffffffffffffff16021790555060208201518160010160006101000a81548173ffffffffffffffffffffffffffffffffffffffff021916908373ffffffffffffffffffffffffffffffffffffffff16021790555060408201518160020155606082015181600301908161119c919061354e565b5060808201518160040160006101000a81548160ff02191690831515021790555060a082015181600501559050507fe424683cd81b662ee4d304f01be2a40f67544086f896f0c35c850eff8b28fce860008083815260200190815260200160002060405161120a91906137f7565b60405180910390a1505050565b6000634906490660e01b7bffffffffffffffffffffffffffffffffffffffffffffffffffffffff1916827bffffffffffffffffffffffffffffffffffffffffffffffffffffffff19161480611271575061127082611dbb565b5b9050919050565b60007f80bb2b638cc20bc4d0a60d66940f3ab4a00c1d7b313497ca82fb0b4ab0079300905090565b6000806112ac83611e9d565b9050600073ffffffffffffffffffffffffffffffffffffffff168173ffffffffffffffffffffffffffffffffffffffff160361131f57826040517f7e2732890000000000000000000000000000000000000000000000000000000081526004016113169190612bf9565b60405180910390fd5b80915050919050565b600080611333611278565b905080600401600084815260200190815260200160002060009054906101000a900473ffffffffffffffffffffffffffffffffffffffff16915050919050565b600033905090565b6113888383836001611ee8565b505050565b600080611398611278565b905060006113a585611e9d565b9050600073ffffffffffffffffffffffffffffffffffffffff168473ffffffffffffffffffffffffffffffffffffffff16146113e7576113e68185876120bc565b5b600073ffffffffffffffffffffffffffffffffffffffff168173ffffffffffffffffffffffffffffffffffffffff161461147a57611429600086600080611ee8565b60018260030160008373ffffffffffffffffffffffffffffffffffffffff1673ffffffffffffffffffffffffffffffffffffffff168152602001908152602001600020600082825403925050819055505b600073ffffffffffffffffffffffffffffffffffffffff168673ffffffffffffffffffffffffffffffffffffffff16146114ff5760018260030160008873ffffffffffffffffffffffffffffffffffffffff1673ffffffffffffffffffffffffffffffffffffffff168152602001908152602001600020600082825401925050819055505b8582600201600087815260200190815260200160002060006101000a81548173ffffffffffffffffffffffffffffffffffffffff021916908373ffffffffffffffffffffffffffffffffffffffff160217905550848673ffffffffffffffffffffffffffffffffffffffff168273ffffffffffffffffffffffffffffffffffffffff167fddf252ad1be2c89b69c2b068fc378daa952ba7f163c4a11628f55a4df523b3ef60405160405180910390a480925050509392505050565b600073ffffffffffffffffffffffffffffffffffffffff168273ffffffffffffffffffffffffffffffffffffffff160361162c5760006040517f64a0ae9200000000000000000000000000000000000000000000000000000000815260040161162391906128ea565b60405180910390fd5b600061163a8383600061138d565b9050600073ffffffffffffffffffffffffffffffffffffffff168173ffffffffffffffffffffffffffffffffffffffff16146116ae5760006040517f73c6ac6e0000000000000000000000000000000000000000000000000000000081526004016116a591906128ea565b60405180910390fd5b505050565b60006116bd612180565b90508181600001600085815260200190815260200160002090816116e1919061354e565b507ff8e1a15aba9398e019f0b49df1a4fde98ee17ae345cb5f6b5e2c27f5033e8ce7836040516117119190612bf9565b60405180910390a1505050565b6117b4816040516024016117329190612bf9565b6040516020818303038152906040527ff82c50f1000000000000000000000000000000000000000000000000000000007bffffffffffffffffffffffffffffffffffffffffffffffffffffffff19166020820180517bffffffffffffffffffffffffffffffffffffffffffffffffffffffff83818316178352505050506121a8565b50565b60007ff0c57e16840df040f15088dc2f81fe391c3923bec73e23a9662efc9c229c6a00905090565b6117e76121c2565b6117f18282612202565b5050565b60006117ff611278565b9050600073ffffffffffffffffffffffffffffffffffffffff168373ffffffffffffffffffffffffffffffffffffffff160361187257826040517f5b08ba1800000000000000000000000000000000000000000000000000000000815260040161186991906128ea565b60405180910390fd5b818160050160008673ffffffffffffffffffffffffffffffffffffffff1673ffffffffffffffffffffffffffffffffffffffff16815260200190815260200160002060008573ffffffffffffffffffffffffffffffffffffffff1673ffffffffffffffffffffffffffffffffffffffff16815260200190815260200160002060006101000a81548160ff0219169083151502179055508273ffffffffffffffffffffffffffffffffffffffff168473ffffffffffffffffffffffffffffffffffffffff167f17307eab39ab6107e8899845ad3d59bd9653f200f220920489ca2b5937696c31846040516119659190612779565b60405180910390a350505050565b60008373ffffffffffffffffffffffffffffffffffffffff163b1115611b24578273ffffffffffffffffffffffffffffffffffffffff1663150b7a026119b7611373565b8685856040518563ffffffff1660e01b81526004016119d9949392919061386e565b6020604051808303816000875af1925050508015611a1557506040513d601f19601f82011682018060405250810190611a1291906138cf565b60015b611a99573d8060008114611a45576040519150601f19603f3d011682016040523d82523d6000602084013e611a4a565b606091505b506000815103611a9157836040517f64a0ae92000000000000000000000000000000000000000000000000000000008152600401611a8891906128ea565b60405180910390fd5b805181602001fd5b63150b7a0260e01b7bffffffffffffffffffffffffffffffffffffffffffffffffffffffff1916817bffffffffffffffffffffffffffffffffffffffffffffffffffffffff191614611b2257836040517f64a0ae92000000000000000000000000000000000000000000000000000000008152600401611b1991906128ea565b60405180910390fd5b505b50505050565b60606000611b36612180565b9050611b41836112a0565b5060008160000160008581526020019081526020016000208054611b6490613066565b80601f0160208091040260200160405190810160405280929190818152602001828054611b9090613066565b8015611bdd5780601f10611bb257610100808354040283529160200191611bdd565b820191906000526020600020905b815481529060010190602001808311611bc057829003601f168201915b505050505090506000611bee61223f565b90506000815103611c0457819350505050611c49565b600082511115611c3a578082604051602001611c21929190613938565b6040516020818303038152906040529350505050611c49565b611c4385612256565b93505050505b919050565b600073ffffffffffffffffffffffffffffffffffffffff168273ffffffffffffffffffffffffffffffffffffffff1603611cc05760006040517f64a0ae92000000000000000000000000000000000000000000000000000000008152600401611cb791906128ea565b60405180910390fd5b6000611cce8383600061138d565b9050600073ffffffffffffffffffffffffffffffffffffffff168173ffffffffffffffffffffffffffffffffffffffff1603611d4157816040517f7e273289000000000000000000000000000000000000000000000000000000008152600401611d389190612bf9565b60405180910390fd5b8373ffffffffffffffffffffffffffffffffffffffff168173ffffffffffffffffffffffffffffffffffffffff1614611db5578382826040517f64283d7b000000000000000000000000000000000000000000000000000000008152600401611dac93929190613097565b60405180910390fd5b50505050565b60007f80ac58cd000000000000000000000000000000000000000000000000000000007bffffffffffffffffffffffffffffffffffffffffffffffffffffffff1916827bffffffffffffffffffffffffffffffffffffffffffffffffffffffff19161480611e8657507f5b5e139f000000000000000000000000000000000000000000000000000000007bffffffffffffffffffffffffffffffffffffffffffffffffffffffff1916827bffffffffffffffffffffffffffffffffffffffffffffffffffffffff1916145b80611e965750611e95826122bf565b5b9050919050565b600080611ea8611278565b905080600201600084815260200190815260200160002060009054906101000a900473ffffffffffffffffffffffffffffffffffffffff16915050919050565b6000611ef2611278565b90508180611f2d5750600073ffffffffffffffffffffffffffffffffffffffff168373ffffffffffffffffffffffffffffffffffffffff1614155b15612061576000611f3d856112a0565b9050600073ffffffffffffffffffffffffffffffffffffffff168473ffffffffffffffffffffffffffffffffffffffff1614158015611fa857508373ffffffffffffffffffffffffffffffffffffffff168173ffffffffffffffffffffffffffffffffffffffff1614155b8015611fbb5750611fb98185610e30565b155b15611ffd57836040517fa9fbf51f000000000000000000000000000000000000000000000000000000008152600401611ff491906128ea565b60405180910390fd5b821561205f57848673ffffffffffffffffffffffffffffffffffffffff168273ffffffffffffffffffffffffffffffffffffffff167f8c5be1e5ebec7d5bd14f71427d1e84f3dd0314c0f7b2291e5b200ac8c7c3b92560405160405180910390a45b505b8481600401600086815260200190815260200160002060006101000a81548173ffffffffffffffffffffffffffffffffffffffff021916908373ffffffffffffffffffffffffffffffffffffffff1602179055505050505050565b6120c7838383612329565b61217b57600073ffffffffffffffffffffffffffffffffffffffff168373ffffffffffffffffffffffffffffffffffffffff160361213c57806040517f7e2732890000000000000000000000000000000000000000000000000000000081526004016121339190612bf9565b60405180910390fd5b81816040517f177e802f00000000000000000000000000000000000000000000000000000000815260040161217292919061395c565b60405180910390fd5b505050565b60007f0542a41881ee128a365a727b282c86fa859579490b9bb45aab8503648c8e7900905090565b6121bf816121b76123ea61240b565b63ffffffff16565b50565b6121ca612416565b612200576040517fd7e6bcf800000000000000000000000000000000000000000000000000000000815260040160405180910390fd5b565b61220a6121c2565b6000612214611278565b905082816000019081612227919061354e565b5081816001019081612239919061354e565b50505050565b606060405180602001604052806000815250905090565b6060612261826112a0565b50600061226c61223f565b9050600081511161228c57604051806020016040528060008152506122b7565b8061229684612436565b6040516020016122a7929190613938565b6040516020818303038152906040525b915050919050565b60007f01ffc9a7000000000000000000000000000000000000000000000000000000007bffffffffffffffffffffffffffffffffffffffffffffffffffffffff1916827bffffffffffffffffffffffffffffffffffffffffffffffffffffffff1916149050919050565b60008073ffffffffffffffffffffffffffffffffffffffff168373ffffffffffffffffffffffffffffffffffffffff16141580156123e157508273ffffffffffffffffffffffffffffffffffffffff168473ffffffffffffffffffffffffffffffffffffffff1614806123a257506123a18484610e30565b5b806123e057508273ffffffffffffffffffffffffffffffffffffffff166123c883611328565b73ffffffffffffffffffffffffffffffffffffffff16145b5b90509392505050565b60006a636f6e736f6c652e6c6f679050600080835160208501845afa505050565b6126bb819050919050565b60006124206117b7565b60000160089054906101000a900460ff16905090565b60606000600161244584612504565b01905060008167ffffffffffffffff811115612464576124636129ce565b5b6040519080825280601f01601f1916602001820160405280156124965781602001600182028036833780820191505090505b509050600082602001820190505b6001156124f9578080600190039150507f3031323334353637383961626364656600000000000000000000000000000000600a86061a8153600a85816124ed576124ec613985565b5b049450600085036124a4575b819350505050919050565b600080600090507a184f03e93ff9f4daa797ed6e38ed64bf6a1f0100000000000000008310612562577a184f03e93ff9f4daa797ed6e38ed64bf6a1f010000000000000000838161255857612557613985565b5b0492506040810190505b6d04ee2d6d415b85acef8100000000831061259f576d04ee2d6d415b85acef8100000000838161259557612594613985565b5b0492506020810190505b662386f26fc1000083106125ce57662386f26fc1000083816125c4576125c3613985565b5b0492506010810190505b6305f5e10083106125f7576305f5e10083816125ed576125ec613985565b5b0492506008810190505b612710831061261c57612710838161261257612611613985565b5b0492506004810190505b6064831061263f576064838161263557612634613985565b5b0492506002810190505b600a831061264e576001810190505b80915050919050565b6040518060c00160405280600073ffffffffffffffffffffffffffffffffffffffff168152602001600073ffffffffffffffffffffffffffffffffffffffff1681526020016000815260200160608152602001600015158152602001600081525090565b6126c36139b4565b565b6000604051905090565b600080fd5b600080fd5b60007fffffffff0000000000000000000000000000000000000000000000000000000082169050919050565b61270e816126d9565b811461271957600080fd5b50565b60008135905061272b81612705565b92915050565b600060208284031215612747576127466126cf565b5b60006127558482850161271c565b91505092915050565b60008115159050919050565b6127738161275e565b82525050565b600060208201905061278e600083018461276a565b92915050565b600081519050919050565b600082825260208201905092915050565b60005b838110156127ce5780820151818401526020810190506127b3565b60008484015250505050565b6000601f19601f8301169050919050565b60006127f682612794565b612800818561279f565b93506128108185602086016127b0565b612819816127da565b840191505092915050565b6000602082019050818103600083015261283e81846127eb565b905092915050565b6000819050919050565b61285981612846565b811461286457600080fd5b50565b60008135905061287681612850565b92915050565b600060208284031215612892576128916126cf565b5b60006128a084828501612867565b91505092915050565b600073ffffffffffffffffffffffffffffffffffffffff82169050919050565b60006128d4826128a9565b9050919050565b6128e4816128c9565b82525050565b60006020820190506128ff60008301846128db565b92915050565b61290e816128c9565b811461291957600080fd5b50565b60008135905061292b81612905565b92915050565b60008060408385031215612948576129476126cf565b5b60006129568582860161291c565b925050602061296785828601612867565b9150509250929050565b60008060006060848603121561298a576129896126cf565b5b60006129988682870161291c565b93505060206129a98682870161291c565b92505060406129ba86828701612867565b9150509250925092565b600080fd5b600080fd5b7f4e487b7100000000000000000000000000000000000000000000000000000000600052604160045260246000fd5b612a06826127da565b810181811067ffffffffffffffff82111715612a2557612a246129ce565b5b80604052505050565b6000612a386126c5565b9050612a4482826129fd565b919050565b600067ffffffffffffffff821115612a6457612a636129ce565b5b612a6d826127da565b9050602081019050919050565b82818337600083830152505050565b6000612a9c612a9784612a49565b612a2e565b905082815260208101848484011115612ab857612ab76129c9565b5b612ac3848285612a7a565b509392505050565b600082601f830112612ae057612adf6129c4565b5b8135612af0848260208601612a89565b91505092915050565b60008060408385031215612b1057612b0f6126cf565b5b600083013567ffffffffffffffff811115612b2e57612b2d6126d4565b5b612b3a85828601612acb565b9250506020612b4b85828601612867565b9150509250929050565b612b5e81612846565b82525050565b600060c082019050612b7960008301896128db565b612b8660208301886128db565b612b936040830187612b55565b8181036060830152612ba581866127eb565b9050612bb4608083018561276a565b612bc160a0830184612b55565b979650505050505050565b600060208284031215612be257612be16126cf565b5b6000612bf08482850161291c565b91505092915050565b6000602082019050612c0e6000830184612b55565b92915050565b600081519050919050565b600082825260208201905092915050565b6000819050602082019050919050565b612c49816128c9565b82525050565b612c5881612846565b82525050565b600082825260208201905092915050565b6000612c7a82612794565b612c848185612c5e565b9350612c948185602086016127b0565b612c9d816127da565b840191505092915050565b612cb18161275e565b82525050565b600060c083016000830151612ccf6000860182612c40565b506020830151612ce26020860182612c40565b506040830151612cf56040860182612c4f565b5060608301518482036060860152612d0d8282612c6f565b9150506080830151612d226080860182612ca8565b5060a0830151612d3560a0860182612c4f565b508091505092915050565b6000612d4c8383612cb7565b905092915050565b6000602082019050919050565b6000612d6c82612c14565b612d768185612c1f565b935083602082028501612d8885612c30565b8060005b85811015612dc45784840389528151612da58582612d40565b9450612db083612d54565b925060208a01995050600181019050612d8c565b50829750879550505050505092915050565b60006020820190508181036000830152612df08184612d61565b905092915050565b612e018161275e565b8114612e0c57600080fd5b50565b600081359050612e1e81612df8565b92915050565b60008060408385031215612e3b57612e3a6126cf565b5b6000612e498582860161291c565b9250506020612e5a85828601612e0f565b9150509250929050565b600067ffffffffffffffff821115612e7f57612e7e6129ce565b5b612e88826127da565b9050602081019050919050565b6000612ea8612ea384612e64565b612a2e565b905082815260208101848484011115612ec457612ec36129c9565b5b612ecf848285612a7a565b509392505050565b600082601f830112612eec57612eeb6129c4565b5b8135612efc848260208601612e95565b91505092915050565b60008060008060808587031215612f1f57612f1e6126cf565b5b6000612f2d8782880161291c565b9450506020612f3e8782880161291c565b9350506040612f4f87828801612867565b925050606085013567ffffffffffffffff811115612f7057612f6f6126d4565b5b612f7c87828801612ed7565b91505092959194509250565b60008060408385031215612f9f57612f9e6126cf565b5b6000612fad8582860161291c565b9250506020612fbe8582860161291c565b9150509250929050565b600080600060608486031215612fe157612fe06126cf565b5b600084013567ffffffffffffffff811115612fff57612ffe6126d4565b5b61300b86828701612acb565b935050602061301c86828701612867565b925050604061302d86828701612867565b9150509250925092565b7f4e487b7100000000000000000000000000000000000000000000000000000000600052602260045260246000fd5b6000600282049050600182168061307e57607f821691505b60208210810361309157613090613037565b5b50919050565b60006060820190506130ac60008301866128db565b6130b96020830185612b55565b6130c660408301846128db565b949350505050565b7f50726963652073686f756c642062652067726561746572207468616e206c697360008201527f74696e6720707269636500000000000000000000000000000000000000000000602082015250565b600061312a602a8361279f565b9150613135826130ce565b604082019050919050565b600060208201905081810360008301526131598161311d565b9050919050565b7f4e487b7100000000000000000000000000000000000000000000000000000000600052601160045260246000fd5b600061319a82612846565b91507fffffffffffffffffffffffffffffffffffffffffffffffffffffffffffffffff82036131cc576131cb613160565b5b600182019050919050565b7f4e487b7100000000000000000000000000000000000000000000000000000000600052603260045260246000fd5b6000819050919050565b600067ffffffffffffffff82169050919050565b6000819050919050565b600061324961324461323f84613206565b613224565b613210565b9050919050565b6132598161322e565b82525050565b60006020820190506132746000830184613250565b92915050565b7f4e465420616c726561647920736f6c6400000000000000000000000000000000600082015250565b60006132b060108361279f565b91506132bb8261327a565b602082019050919050565b600060208201905081810360008301526132df816132a3565b9050919050565b7f506c656173652073656e64207468652065786163742061736b696e672070726960008201527f636520746f2070726f6365656400000000000000000000000000000000000000602082015250565b6000613342602d8361279f565b915061334d826132e6565b604082019050919050565b6000602082019050818103600083015261337181613335565b9050919050565b600061338382612846565b915061338e83612846565b92508282039050818111156133a6576133a5613160565b5b92915050565b60008190508160005260206000209050919050565b60006020601f8301049050919050565b600082821b905092915050565b60006008830261340e7fffffffffffffffffffffffffffffffffffffffffffffffffffffffffffffffff826133d1565b61341886836133d1565b95508019841693508086168417925050509392505050565b600061344b61344661344184612846565b613224565b612846565b9050919050565b6000819050919050565b61346583613430565b61347961347182613452565b8484546133de565b825550505050565b600090565b61348e613481565b61349981848461345c565b505050565b5b818110156134bd576134b2600082613486565b60018101905061349f565b5050565b601f821115613502576134d3816133ac565b6134dc846133c1565b810160208510156134eb578190505b6134ff6134f7856133c1565b83018261349e565b50505b505050565b600082821c905092915050565b600061352560001984600802613507565b1980831691505092915050565b600061353e8383613514565b9150826002028217905092915050565b61355782612794565b67ffffffffffffffff8111156135705761356f6129ce565b5b61357a8254613066565b6135858282856134c1565b600060209050601f8311600181146135b857600084156135a6578287015190505b6135b08582613532565b865550613618565b601f1984166135c6866133ac565b60005b828110156135ee578489015182556001820191506020850194506020810190506135c9565b8683101561360b5784890151613607601f891682613514565b8355505b6001600288020188555050505b505050505050565b60008160001c9050919050565b600073ffffffffffffffffffffffffffffffffffffffff82169050919050565b600061366061365b83613620565b61362d565b9050919050565b6000819050919050565b600061368461367f83613620565b613667565b9050919050565b6000815461369881613066565b6136a28186612c5e565b945060018216600081146136bd57600181146136d357613706565b60ff198316865281151560200286019350613706565b6136dc856133ac565b60005b838110156136fe578154818901526001820191506020810190506136df565b808801955050505b50505092915050565b600060ff82169050919050565b600061372f61372a83613620565b61370f565b9050919050565b600060c08301600080840154905061374d8161364d565b61375a6000870182612c40565b506001840154905061376b8161364d565b6137786020870182612c40565b506002840154905061378981613671565b6137966040870182612c4f565b506003840185830360608701526137ad838261368b565b925050600484015490506137c08161371c565b6137cd6080870182612ca8565b50600584015490506137de81613671565b6137eb60a0870182612c4f565b50819250505092915050565b600060208201905081810360008301526138118184613736565b905092915050565b600081519050919050565b600082825260208201905092915050565b600061384082613819565b61384a8185613824565b935061385a8185602086016127b0565b613863816127da565b840191505092915050565b600060808201905061388360008301876128db565b61389060208301866128db565b61389d6040830185612b55565b81810360608301526138af8184613835565b905095945050505050565b6000815190506138c981612705565b92915050565b6000602082840312156138e5576138e46126cf565b5b60006138f3848285016138ba565b91505092915050565b600081905092915050565b600061391282612794565b61391c81856138fc565b935061392c8185602086016127b0565b80840191505092915050565b60006139448285613907565b91506139508284613907565b91508190509392505050565b600060408201905061397160008301856128db565b61397e6020830184612b55565b9392505050565b7f4e487b7100000000000000000000000000000000000000000000000000000000600052601260045260246000fd5b7f4e487b7100000000000000000000000000000000000000000000000000000000600052605160045260246000fdfea2646970667358221220a5a6bc22d3d4b5b99b87105d244f476a0af05969b41069fd25748e2834bef37664736f6c63430008150033",
  "linkReferences": {},
  "deployedLinkReferences": {}
}