{
  "_format": "hh-sol-artifact-1",
  "contractName": "NFTSS",
  "sourceName": "contracts/Nft.sol",
  "abi": [
    {
      "inputs": [
        {
          "internalType": "address",
          "name": "sender",
          "type": "address"
        },
        {
          "internalType": "uint256",
          "name": "tokenId",
          "type": "uint256"
        },
        {
          "internalType": "address",
          "name": "owner",
          "type": "address"
        }
      ],
      "name": "ERC721IncorrectOwner",
      "type": "error"
    },
    {
      "inputs": [
        {
          "internalType": "address",
          "name": "operator",
          "type": "address"
        },
        {
          "internalType": "uint256",
          "name": "tokenId",
          "type": "uint256"
        }
      ],
      "name": "ERC721InsufficientApproval",
      "type": "error"
    },
    {
      "inputs": [
        {
          "internalType": "address",
          "name": "approver",
          "type": "address"
        }
      ],
      "name": "ERC721InvalidApprover",
      "type": "error"
    },
    {
      "inputs": [
        {
          "internalType": "address",
          "name": "operator",
          "type": "address"
        }
      ],
      "name": "ERC721InvalidOperator",
      "type": "error"
    },
    {
      "inputs": [
        {
          "internalType": "address",
          "name": "owner",
          "type": "address"
        }
      ],
      "name": "ERC721InvalidOwner",
      "type": "error"
    },
    {
      "inputs": [
        {
          "internalType": "address",
          "name": "receiver",
          "type": "address"
        }
      ],
      "name": "ERC721InvalidReceiver",
      "type": "error"
    },
    {
      "inputs": [
        {
          "internalType": "address",
          "name": "sender",
          "type": "address"
        }
      ],
      "name": "ERC721InvalidSender",
      "type": "error"
    },
    {
      "inputs": [
        {
          "internalType": "uint256",
          "name": "tokenId",
          "type": "uint256"
        }
      ],
      "name": "ERC721NonexistentToken",
      "type": "error"
    },
    {
      "inputs": [],
      "name": "InvalidInitialization",
      "type": "error"
    },
    {
      "inputs": [],
      "name": "NotInitializing",
      "type": "error"
    },
    {
      "anonymous": false,
      "inputs": [
        {
          "components": [
            {
              "internalType": "address",
              "name": "creator",
              "type": "address"
            },
            {
              "internalType": "address",
              "name": "owner",
              "type": "address"
            },
            {
              "internalType": "uint256",
              "name": "price",
              "type": "uint256"
            },
            {
              "internalType": "string",
              "name": "uri",
              "type": "string"
            },
            {
              "internalType": "bool",
              "name": "isSold",
              "type": "bool"
            },
            {
              "internalType": "uint256",
              "name": "tokenId",
              "type": "uint256"
            }
          ],
          "indexed": false,
          "internalType": "struct NFTSS.NFT",
          "name": "",
          "type": "tuple"
        }
      ],
      "name": "Added",
      "type": "event"
    },
    {
      "anonymous": false,
      "inputs": [
        {
          "indexed": true,
          "internalType": "address",
          "name": "owner",
          "type": "address"
        },
        {
          "indexed": true,
          "internalType": "address",
          "name": "approved",
          "type": "address"
        },
        {
          "indexed": true,
          "internalType": "uint256",
          "name": "tokenId",
          "type": "uint256"
        }
      ],
      "name": "Approval",
      "type": "event"
    },
    {
      "anonymous": false,
      "inputs": [
        {
          "indexed": true,
          "internalType": "address",
          "name": "owner",
          "type": "address"
        },
        {
          "indexed": true,
          "internalType": "address",
          "name": "operator",
          "type": "address"
        },
        {
          "indexed": false,
          "internalType": "bool",
          "name": "approved",
          "type": "bool"
        }
      ],
      "name": "ApprovalForAll",
      "type": "event"
    },
    {
      "anonymous": false,
      "inputs": [
        {
          "indexed": false,
          "internalType": "uint256",
          "name": "_fromTokenId",
          "type": "uint256"
        },
        {
          "indexed": false,
          "internalType": "uint256",
          "name": "_toTokenId",
          "type": "uint256"
        }
      ],
      "name": "BatchMetadataUpdate",
      "type": "event"
    },
    {
      "anonymous": false,
      "inputs": [
        {
          "indexed": false,
          "internalType": "uint64",
          "name": "version",
          "type": "uint64"
        }
      ],
      "name": "Initialized",
      "type": "event"
    },
    {
      "anonymous": false,
      "inputs": [
        {
          "indexed": false,
          "internalType": "uint256",
          "name": "_tokenId",
          "type": "uint256"
        }
      ],
      "name": "MetadataUpdate",
      "type": "event"
    },
    {
      "anonymous": false,
      "inputs": [
        {
          "indexed": true,
          "internalType": "address",
          "name": "from",
          "type": "address"
        },
        {
          "indexed": true,
          "internalType": "address",
          "name": "to",
          "type": "address"
        },
        {
          "indexed": true,
          "internalType": "uint256",
          "name": "tokenId",
          "type": "uint256"
        }
      ],
      "name": "Transfer",
      "type": "event"
    },
    {
      "inputs": [
        {
          "internalType": "string",
          "name": "uri",
          "type": "string"
        },
        {
          "internalType": "uint256",
          "name": "price",
          "type": "uint256"
        },
        {
          "internalType": "uint256",
          "name": "tokenId",
          "type": "uint256"
        }
      ],
      "name": "_createMarketItem",
      "outputs": [],
      "stateMutability": "nonpayable",
      "type": "function"
    },
    {
      "inputs": [
        {
          "internalType": "address",
          "name": "to",
          "type": "address"
        },
        {
          "internalType": "uint256",
          "name": "tokenId",
          "type": "uint256"
        }
      ],
      "name": "approve",
      "outputs": [],
      "stateMutability": "nonpayable",
      "type": "function"
    },
    {
      "inputs": [
        {
          "internalType": "address",
          "name": "owner",
          "type": "address"
        }
      ],
      "name": "balanceOf",
      "outputs": [
        {
          "internalType": "uint256",
          "name": "",
          "type": "uint256"
        }
      ],
      "stateMutability": "view",
      "type": "function"
    },
    {
      "inputs": [
        {
          "internalType": "uint256",
          "name": "tokenId",
          "type": "uint256"
        }
      ],
      "name": "buyNft",
      "outputs": [],
      "stateMutability": "payable",
      "type": "function"
    },
    {
      "inputs": [
        {
          "internalType": "string",
          "name": "uri",
          "type": "string"
        },
        {
          "internalType": "uint256",
          "name": "price",
          "type": "uint256"
        }
      ],
      "name": "createNFT",
      "outputs": [],
      "stateMutability": "payable",
      "type": "function"
    },
    {
      "inputs": [
        {
          "internalType": "uint256",
          "name": "tokenId",
          "type": "uint256"
        }
      ],
      "name": "getApproved",
      "outputs": [
        {
          "internalType": "address",
          "name": "",
          "type": "address"
        }
      ],
      "stateMutability": "view",
      "type": "function"
    },
    {
      "inputs": [],
      "name": "initialize",
      "outputs": [],
      "stateMutability": "nonpayable",
      "type": "function"
    },
    {
      "inputs": [
        {
          "internalType": "address",
          "name": "owner",
          "type": "address"
        },
        {
          "internalType": "address",
          "name": "operator",
          "type": "address"
        }
      ],
      "name": "isApprovedForAll",
      "outputs": [
        {
          "internalType": "bool",
          "name": "",
          "type": "bool"
        }
      ],
      "stateMutability": "view",
      "type": "function"
    },
    {
      "inputs": [
        {
          "internalType": "uint256",
          "name": "",
          "type": "uint256"
        }
      ],
      "name": "listedTokens",
      "outputs": [
        {
          "internalType": "address",
          "name": "creator",
          "type": "address"
        },
        {
          "internalType": "address",
          "name": "owner",
          "type": "address"
        },
        {
          "internalType": "uint256",
          "name": "price",
          "type": "uint256"
        },
        {
          "internalType": "string",
          "name": "uri",
          "type": "string"
        },
        {
          "internalType": "bool",
          "name": "isSold",
          "type": "bool"
        },
        {
          "internalType": "uint256",
          "name": "tokenId",
          "type": "uint256"
        }
      ],
      "stateMutability": "view",
      "type": "function"
    },
    {
      "inputs": [],
      "name": "name",
      "outputs": [
        {
          "internalType": "string",
          "name": "",
          "type": "string"
        }
      ],
      "stateMutability": "view",
      "type": "function"
    },
    {
      "inputs": [
        {
          "internalType": "uint256",
          "name": "tokenId",
          "type": "uint256"
        }
      ],
      "name": "ownerOf",
      "outputs": [
        {
          "internalType": "address",
          "name": "",
          "type": "address"
        }
      ],
      "stateMutability": "view",
      "type": "function"
    },
    {
      "inputs": [
        {
          "internalType": "address",
          "name": "from",
          "type": "address"
        },
        {
          "internalType": "address",
          "name": "to",
          "type": "address"
        },
        {
          "internalType": "uint256",
          "name": "tokenId",
          "type": "uint256"
        }
      ],
      "name": "safeTransferFrom",
      "outputs": [],
      "stateMutability": "nonpayable",
      "type": "function"
    },
    {
      "inputs": [
        {
          "internalType": "address",
          "name": "from",
          "type": "address"
        },
        {
          "internalType": "address",
          "name": "to",
          "type": "address"
        },
        {
          "internalType": "uint256",
          "name": "tokenId",
          "type": "uint256"
        },
        {
          "internalType": "bytes",
          "name": "data",
          "type": "bytes"
        }
      ],
      "name": "safeTransferFrom",
      "outputs": [],
      "stateMutability": "nonpayable",
      "type": "function"
    },
    {
      "inputs": [
        {
          "internalType": "address",
          "name": "operator",
          "type": "address"
        },
        {
          "internalType": "bool",
          "name": "approved",
          "type": "bool"
        }
      ],
      "name": "setApprovalForAll",
      "outputs": [],
      "stateMutability": "nonpayable",
      "type": "function"
    },
    {
      "inputs": [
        {
          "internalType": "bytes4",
          "name": "interfaceId",
          "type": "bytes4"
        }
      ],
      "name": "supportsInterface",
      "outputs": [
        {
          "internalType": "bool",
          "name": "",
          "type": "bool"
        }
      ],
      "stateMutability": "view",
      "type": "function"
    },
    {
      "inputs": [],
      "name": "symbol",
      "outputs": [
        {
          "internalType": "string",
          "name": "",
          "type": "string"
        }
      ],
      "stateMutability": "view",
      "type": "function"
    },
    {
      "inputs": [
        {
          "internalType": "uint256",
          "name": "tokenId",
          "type": "uint256"
        }
      ],
      "name": "tokenURI",
      "outputs": [
        {
          "internalType": "string",
          "name": "",
          "type": "string"
        }
      ],
      "stateMutability": "view",
      "type": "function"
    },
    {
      "inputs": [],
      "name": "totalNFTs",
      "outputs": [
        {
          "components": [
            {
              "internalType": "address",
              "name": "creator",
              "type": "address"
            },
            {
              "internalType": "address",
              "name": "owner",
              "type": "address"
            },
            {
              "internalType": "uint256",
              "name": "price",
              "type": "uint256"
            },
            {
              "internalType": "string",
              "name": "uri",
              "type": "string"
            },
            {
              "internalType": "bool",
              "name": "isSold",
              "type": "bool"
            },
            {
              "internalType": "uint256",
              "name": "tokenId",
              "type": "uint256"
            }
          ],
          "internalType": "struct NFTSS.NFT[]",
          "name": "",
          "type": "tuple[]"
        }
      ],
      "stateMutability": "view",
      "type": "function"
    },
    {
      "inputs": [
        {
          "internalType": "address",
          "name": "from",
          "type": "address"
        },
        {
          "internalType": "address",
          "name": "to",
          "type": "address"
        },
        {
          "internalType": "uint256",
          "name": "tokenId",
          "type": "uint256"
        }
      ],
      "name": "transferFrom",
      "outputs": [],
      "stateMutability": "nonpayable",
      "type": "function"
    }
  ],
  "bytecode": "0x608060405234801561001057600080fd5b50613ac9806100206000396000f3fe6080604052600436106101145760003560e01c80635a9d1ac3116100a0578063a22cb46511610064578063a22cb4651461039a578063b88d4fde146103c3578063c87b56dd146103ec578063e985e9c514610429578063fcfd42ba1461046657610114565b80635a9d1ac31461029c5780636352211e146102de57806370a082311461031b5780638129fc1c1461035857806395d89b411461036f57610114565b80630d0e96da116100e75780630d0e96da146101e757806323b872dd14610212578063243adbdd1461023b578063268291551461025757806342842e0e1461027357610114565b806301ffc9a71461011957806306fdde0314610156578063081812fc14610181578063095ea7b3146101be575b600080fd5b34801561012557600080fd5b50610140600480360381019061013b9190612775565b61048f565b60405161014d91906127bd565b60405180910390f35b34801561016257600080fd5b5061016b6104a1565b6040516101789190612868565b60405180910390f35b34801561018d57600080fd5b506101a860048036038101906101a391906128c0565b610542565b6040516101b5919061292e565b60405180910390f35b3480156101ca57600080fd5b506101e560048036038101906101e09190612975565b61055e565b005b3480156101f357600080fd5b506101fc610574565b6040516102099190612b77565b60405180910390f35b34801561021e57600080fd5b5061023960048036038101906102349190612b99565b6107b3565b005b610255600480360381019061025091906128c0565b6108b5565b005b610271600480360381019061026c9190612d21565b610aa8565b005b34801561027f57600080fd5b5061029a60048036038101906102959190612b99565b610b2b565b005b3480156102a857600080fd5b506102c360048036038101906102be91906128c0565b610b4b565b6040516102d596959493929190612d8c565b60405180910390f35b3480156102ea57600080fd5b50610305600480360381019061030091906128c0565b610c5c565b604051610312919061292e565b60405180910390f35b34801561032757600080fd5b50610342600480360381019061033d9190612df4565b610c6e565b60405161034f9190612e21565b60405180910390f35b34801561036457600080fd5b5061036d610d37565b005b34801561037b57600080fd5b50610384610f3d565b6040516103919190612868565b60405180910390f35b3480156103a657600080fd5b506103c160048036038101906103bc9190612e68565b610fde565b005b3480156103cf57600080fd5b506103ea60048036038101906103e59190612f49565b610ff4565b005b3480156103f857600080fd5b50610413600480360381019061040e91906128c0565b611011565b6040516104209190612868565b60405180910390f35b34801561043557600080fd5b50610450600480360381019061044b9190612fcc565b611023565b60405161045d91906127bd565b60405180910390f35b34801561047257600080fd5b5061048d6004803603810190610488919061300c565b6110c5565b005b600061049a8261125b565b9050919050565b606060006104ad6112bc565b90508060000180546104be906130aa565b80601f01602080910402602001604051908101604052809291908181526020018280546104ea906130aa565b80156105375780601f1061050c57610100808354040283529160200191610537565b820191906000526020600020905b81548152906001019060200180831161051a57829003601f168201915b505050505091505090565b600061054d826112e4565b506105578261136c565b9050919050565b610570828261056b6113b7565b6113bf565b5050565b6060600061058130610c6e565b905061058c816113d1565b60008167ffffffffffffffff8111156105a8576105a7612bf6565b5b6040519080825280602002602001820160405280156105e157816020015b6105ce61269b565b8152602001906001900390816105c65790505b50905060005b828110156107aa576000808281526020019081526020016000206040518060c00160405290816000820160009054906101000a900473ffffffffffffffffffffffffffffffffffffffff1673ffffffffffffffffffffffffffffffffffffffff1673ffffffffffffffffffffffffffffffffffffffff1681526020016001820160009054906101000a900473ffffffffffffffffffffffffffffffffffffffff1673ffffffffffffffffffffffffffffffffffffffff1673ffffffffffffffffffffffffffffffffffffffff168152602001600282015481526020016003820180546106d2906130aa565b80601f01602080910402602001604051908101604052809291908181526020018280546106fe906130aa565b801561074b5780601f106107205761010080835404028352916020019161074b565b820191906000526020600020905b81548152906001019060200180831161072e57829003601f168201915b505050505081526020016004820160009054906101000a900460ff1615151515815260200160058201548152505082828151811061078c5761078b6130db565b5b602002602001018190525080806107a290613139565b9150506105e7565b50809250505090565b600073ffffffffffffffffffffffffffffffffffffffff168273ffffffffffffffffffffffffffffffffffffffff16036108255760006040517f64a0ae9200000000000000000000000000000000000000000000000000000000815260040161081c919061292e565b60405180910390fd5b600061083983836108346113b7565b61146a565b90508373ffffffffffffffffffffffffffffffffffffffff168173ffffffffffffffffffffffffffffffffffffffff16146108af578382826040517f64283d7b0000000000000000000000000000000000000000000000000000000081526004016108a693929190613181565b60405180910390fd5b50505050565b6000151560008083815260200190815260200160002060040160009054906101000a900460ff1615151461091e576040517f08c379a000000000000000000000000000000000000000000000000000000000815260040161091590613204565b60405180910390fd5b6003543411610962576040517f08c379a000000000000000000000000000000000000000000000000000000000815260040161095990613270565b60405180910390fd5b6000806000838152602001908152602001600020600201549050600080600084815260200190815260200160002060000160009054906101000a900473ffffffffffffffffffffffffffffffffffffffff1690508134146109f8576040517f08c379a00000000000000000000000000000000000000000000000000000000081526004016109ef90613302565b60405180910390fd5b610a03303385611697565b600060035434610a139190613322565b90508173ffffffffffffffffffffffffffffffffffffffff166108fc829081150290604051600060405180830381858888f19350505050158015610a5b573d6000803e3d6000fd5b50600160008086815260200190815260200160002060040160006101000a81548160ff02191690831515021790555060016000815480929190610a9d90613139565b919050555050505050565b6003548111610aec576040517f08c379a0000000000000000000000000000000000000000000000000000000008152600401610ae3906133c8565b60405180910390fd5b600060026000815480929190610b0190613139565b919050559050610b113082611804565b610b1b81846118fd565b610b268383836110c5565b505050565b610b4683838360405180602001604052806000815250610ff4565b505050565b60006020528060005260406000206000915090508060000160009054906101000a900473ffffffffffffffffffffffffffffffffffffffff16908060010160009054906101000a900473ffffffffffffffffffffffffffffffffffffffff1690806002015490806003018054610bc0906130aa565b80601f0160208091040260200160405190810160405280929190818152602001828054610bec906130aa565b8015610c395780601f10610c0e57610100808354040283529160200191610c39565b820191906000526020600020905b815481529060010190602001808311610c1c57829003601f168201915b5050505050908060040160009054906101000a900460ff16908060050154905086565b6000610c67826112e4565b9050919050565b600080610c796112bc565b9050600073ffffffffffffffffffffffffffffffffffffffff168373ffffffffffffffffffffffffffffffffffffffff1603610ced5760006040517f89c62b64000000000000000000000000000000000000000000000000000000008152600401610ce4919061292e565b60405180910390fd5b8060030160008473ffffffffffffffffffffffffffffffffffffffff1673ffffffffffffffffffffffffffffffffffffffff16815260200190815260200160002054915050919050565b6000610d41611968565b905060008160000160089054906101000a900460ff1615905060008260000160009054906101000a900467ffffffffffffffff1690506000808267ffffffffffffffff16148015610d8f5750825b9050600060018367ffffffffffffffff16148015610dc4575060003073ffffffffffffffffffffffffffffffffffffffff163b145b905081158015610dd2575080155b15610e09576040517ff92ee8a900000000000000000000000000000000000000000000000000000000815260040160405180910390fd5b60018560000160006101000a81548167ffffffffffffffff021916908367ffffffffffffffff1602179055508315610e595760018560000160086101000a81548160ff0219169083151502179055505b610ecd6040518060400160405280600781526020017f4d79546f6b656e000000000000000000000000000000000000000000000000008152506040518060400160405280600381526020017f4d544b0000000000000000000000000000000000000000000000000000000000815250611990565b655af3107a40006003819055508315610f365760008560000160086101000a81548160ff0219169083151502179055507fc7f505b2f371ae2175ee4913f4499e1f2633a7b5936321eed1cdaeb6115181d26001604051610f2d9190613441565b60405180910390a15b5050505050565b60606000610f496112bc565b9050806001018054610f5a906130aa565b80601f0160208091040260200160405190810160405280929190818152602001828054610f86906130aa565b8015610fd35780601f10610fa857610100808354040283529160200191610fd3565b820191906000526020600020905b815481529060010190602001808311610fb657829003601f168201915b505050505091505090565b610ff0610fe96113b7565b83836119a6565b5050565b610fff8484846107b3565b61100b84848484611b24565b50505050565b606061101c82611cdb565b9050919050565b60008061102e6112bc565b90508060050160008573ffffffffffffffffffffffffffffffffffffffff1673ffffffffffffffffffffffffffffffffffffffff16815260200190815260200160002060008473ffffffffffffffffffffffffffffffffffffffff1673ffffffffffffffffffffffffffffffffffffffff16815260200190815260200160002060009054906101000a900460ff1691505092915050565b6040518060c001604052803373ffffffffffffffffffffffffffffffffffffffff1681526020013073ffffffffffffffffffffffffffffffffffffffff1681526020018381526020018481526020016000151581526020018281525060008083815260200190815260200160002060008201518160000160006101000a81548173ffffffffffffffffffffffffffffffffffffffff021916908373ffffffffffffffffffffffffffffffffffffffff16021790555060208201518160010160006101000a81548173ffffffffffffffffffffffffffffffffffffffff021916908373ffffffffffffffffffffffffffffffffffffffff1602179055506040820151816002015560608201518160030190816111e091906135fe565b5060808201518160040160006101000a81548160ff02191690831515021790555060a082015181600501559050507fe424683cd81b662ee4d304f01be2a40f67544086f896f0c35c850eff8b28fce860008083815260200190815260200160002060405161124e91906138a7565b60405180910390a1505050565b6000634906490660e01b7bffffffffffffffffffffffffffffffffffffffffffffffffffffffff1916827bffffffffffffffffffffffffffffffffffffffffffffffffffffffff191614806112b557506112b482611dff565b5b9050919050565b60007f80bb2b638cc20bc4d0a60d66940f3ab4a00c1d7b313497ca82fb0b4ab0079300905090565b6000806112f083611ee1565b9050600073ffffffffffffffffffffffffffffffffffffffff168173ffffffffffffffffffffffffffffffffffffffff160361136357826040517f7e27328900000000000000000000000000000000000000000000000000000000815260040161135a9190612e21565b60405180910390fd5b80915050919050565b6000806113776112bc565b905080600401600084815260200190815260200160002060009054906101000a900473ffffffffffffffffffffffffffffffffffffffff16915050919050565b600033905090565b6113cc8383836001611f2c565b505050565b611467816040516024016113e59190612e21565b6040516020818303038152906040527ff82c50f1000000000000000000000000000000000000000000000000000000007bffffffffffffffffffffffffffffffffffffffffffffffffffffffff19166020820180517bffffffffffffffffffffffffffffffffffffffffffffffffffffffff8381831617835250505050612100565b50565b6000806114756112bc565b9050600061148285611ee1565b9050600073ffffffffffffffffffffffffffffffffffffffff168473ffffffffffffffffffffffffffffffffffffffff16146114c4576114c381858761211a565b5b600073ffffffffffffffffffffffffffffffffffffffff168173ffffffffffffffffffffffffffffffffffffffff161461155757611506600086600080611f2c565b60018260030160008373ffffffffffffffffffffffffffffffffffffffff1673ffffffffffffffffffffffffffffffffffffffff168152602001908152602001600020600082825403925050819055505b600073ffffffffffffffffffffffffffffffffffffffff168673ffffffffffffffffffffffffffffffffffffffff16146115dc5760018260030160008873ffffffffffffffffffffffffffffffffffffffff1673ffffffffffffffffffffffffffffffffffffffff168152602001908152602001600020600082825401925050819055505b8582600201600087815260200190815260200160002060006101000a81548173ffffffffffffffffffffffffffffffffffffffff021916908373ffffffffffffffffffffffffffffffffffffffff160217905550848673ffffffffffffffffffffffffffffffffffffffff168273ffffffffffffffffffffffffffffffffffffffff167fddf252ad1be2c89b69c2b068fc378daa952ba7f163c4a11628f55a4df523b3ef60405160405180910390a480925050509392505050565b600073ffffffffffffffffffffffffffffffffffffffff168273ffffffffffffffffffffffffffffffffffffffff16036117095760006040517f64a0ae92000000000000000000000000000000000000000000000000000000008152600401611700919061292e565b60405180910390fd5b60006117178383600061146a565b9050600073ffffffffffffffffffffffffffffffffffffffff168173ffffffffffffffffffffffffffffffffffffffff160361178a57816040517f7e2732890000000000000000000000000000000000000000000000000000000081526004016117819190612e21565b60405180910390fd5b8373ffffffffffffffffffffffffffffffffffffffff168173ffffffffffffffffffffffffffffffffffffffff16146117fe578382826040517f64283d7b0000000000000000000000000000000000000000000000000000000081526004016117f593929190613181565b60405180910390fd5b50505050565b600073ffffffffffffffffffffffffffffffffffffffff168273ffffffffffffffffffffffffffffffffffffffff16036118765760006040517f64a0ae9200000000000000000000000000000000000000000000000000000000815260040161186d919061292e565b60405180910390fd5b60006118848383600061146a565b9050600073ffffffffffffffffffffffffffffffffffffffff168173ffffffffffffffffffffffffffffffffffffffff16146118f85760006040517f73c6ac6e0000000000000000000000000000000000000000000000000000000081526004016118ef919061292e565b60405180910390fd5b505050565b60006119076121de565b905081816000016000858152602001908152602001600020908161192b91906135fe565b507ff8e1a15aba9398e019f0b49df1a4fde98ee17ae345cb5f6b5e2c27f5033e8ce78360405161195b9190612e21565b60405180910390a1505050565b60007ff0c57e16840df040f15088dc2f81fe391c3923bec73e23a9662efc9c229c6a00905090565b611998612206565b6119a28282612246565b5050565b60006119b06112bc565b9050600073ffffffffffffffffffffffffffffffffffffffff168373ffffffffffffffffffffffffffffffffffffffff1603611a2357826040517f5b08ba18000000000000000000000000000000000000000000000000000000008152600401611a1a919061292e565b60405180910390fd5b818160050160008673ffffffffffffffffffffffffffffffffffffffff1673ffffffffffffffffffffffffffffffffffffffff16815260200190815260200160002060008573ffffffffffffffffffffffffffffffffffffffff1673ffffffffffffffffffffffffffffffffffffffff16815260200190815260200160002060006101000a81548160ff0219169083151502179055508273ffffffffffffffffffffffffffffffffffffffff168473ffffffffffffffffffffffffffffffffffffffff167f17307eab39ab6107e8899845ad3d59bd9653f200f220920489ca2b5937696c3184604051611b1691906127bd565b60405180910390a350505050565b60008373ffffffffffffffffffffffffffffffffffffffff163b1115611cd5578273ffffffffffffffffffffffffffffffffffffffff1663150b7a02611b686113b7565b8685856040518563ffffffff1660e01b8152600401611b8a949392919061391e565b6020604051808303816000875af1925050508015611bc657506040513d601f19601f82011682018060405250810190611bc3919061397f565b60015b611c4a573d8060008114611bf6576040519150601f19603f3d011682016040523d82523d6000602084013e611bfb565b606091505b506000815103611c4257836040517f64a0ae92000000000000000000000000000000000000000000000000000000008152600401611c39919061292e565b60405180910390fd5b805181602001fd5b63150b7a0260e01b7bffffffffffffffffffffffffffffffffffffffffffffffffffffffff1916817bffffffffffffffffffffffffffffffffffffffffffffffffffffffff191614611cd357836040517f64a0ae92000000000000000000000000000000000000000000000000000000008152600401611cca919061292e565b60405180910390fd5b505b50505050565b60606000611ce76121de565b9050611cf2836112e4565b5060008160000160008581526020019081526020016000208054611d15906130aa565b80601f0160208091040260200160405190810160405280929190818152602001828054611d41906130aa565b8015611d8e5780601f10611d6357610100808354040283529160200191611d8e565b820191906000526020600020905b815481529060010190602001808311611d7157829003601f168201915b505050505090506000611d9f612283565b90506000815103611db557819350505050611dfa565b600082511115611deb578082604051602001611dd29291906139e8565b6040516020818303038152906040529350505050611dfa565b611df48561229a565b93505050505b919050565b60007f80ac58cd000000000000000000000000000000000000000000000000000000007bffffffffffffffffffffffffffffffffffffffffffffffffffffffff1916827bffffffffffffffffffffffffffffffffffffffffffffffffffffffff19161480611eca57507f5b5e139f000000000000000000000000000000000000000000000000000000007bffffffffffffffffffffffffffffffffffffffffffffffffffffffff1916827bffffffffffffffffffffffffffffffffffffffffffffffffffffffff1916145b80611eda5750611ed982612303565b5b9050919050565b600080611eec6112bc565b905080600201600084815260200190815260200160002060009054906101000a900473ffffffffffffffffffffffffffffffffffffffff16915050919050565b6000611f366112bc565b90508180611f715750600073ffffffffffffffffffffffffffffffffffffffff168373ffffffffffffffffffffffffffffffffffffffff1614155b156120a5576000611f81856112e4565b9050600073ffffffffffffffffffffffffffffffffffffffff168473ffffffffffffffffffffffffffffffffffffffff1614158015611fec57508373ffffffffffffffffffffffffffffffffffffffff168173ffffffffffffffffffffffffffffffffffffffff1614155b8015611fff5750611ffd8185611023565b155b1561204157836040517fa9fbf51f000000000000000000000000000000000000000000000000000000008152600401612038919061292e565b60405180910390fd5b82156120a357848673ffffffffffffffffffffffffffffffffffffffff168273ffffffffffffffffffffffffffffffffffffffff167f8c5be1e5ebec7d5bd14f71427d1e84f3dd0314c0f7b2291e5b200ac8c7c3b92560405160405180910390a45b505b8481600401600086815260200190815260200160002060006101000a81548173ffffffffffffffffffffffffffffffffffffffff021916908373ffffffffffffffffffffffffffffffffffffffff1602179055505050505050565b6121178161210f61236d61238e565b63ffffffff16565b50565b612125838383612399565b6121d957600073ffffffffffffffffffffffffffffffffffffffff168373ffffffffffffffffffffffffffffffffffffffff160361219a57806040517f7e2732890000000000000000000000000000000000000000000000000000000081526004016121919190612e21565b60405180910390fd5b81816040517f177e802f0000000000000000000000000000000000000000000000000000000081526004016121d0929190613a0c565b60405180910390fd5b505050565b60007f0542a41881ee128a365a727b282c86fa859579490b9bb45aab8503648c8e7900905090565b61220e61245a565b612244576040517fd7e6bcf800000000000000000000000000000000000000000000000000000000815260040160405180910390fd5b565b61224e612206565b60006122586112bc565b90508281600001908161226b91906135fe565b508181600101908161227d91906135fe565b50505050565b606060405180602001604052806000815250905090565b60606122a5826112e4565b5060006122b0612283565b905060008151116122d057604051806020016040528060008152506122fb565b806122da8461247a565b6040516020016122eb9291906139e8565b6040516020818303038152906040525b915050919050565b60007f01ffc9a7000000000000000000000000000000000000000000000000000000007bffffffffffffffffffffffffffffffffffffffffffffffffffffffff1916827bffffffffffffffffffffffffffffffffffffffffffffffffffffffff1916149050919050565b60006a636f6e736f6c652e6c6f679050600080835160208501845afa505050565b6126ff819050919050565b60008073ffffffffffffffffffffffffffffffffffffffff168373ffffffffffffffffffffffffffffffffffffffff161415801561245157508273ffffffffffffffffffffffffffffffffffffffff168473ffffffffffffffffffffffffffffffffffffffff16148061241257506124118484611023565b5b8061245057508273ffffffffffffffffffffffffffffffffffffffff166124388361136c565b73ffffffffffffffffffffffffffffffffffffffff16145b5b90509392505050565b6000612464611968565b60000160089054906101000a900460ff16905090565b60606000600161248984612548565b01905060008167ffffffffffffffff8111156124a8576124a7612bf6565b5b6040519080825280601f01601f1916602001820160405280156124da5781602001600182028036833780820191505090505b509050600082602001820190505b60011561253d578080600190039150507f3031323334353637383961626364656600000000000000000000000000000000600a86061a8153600a858161253157612530613a35565b5b049450600085036124e8575b819350505050919050565b600080600090507a184f03e93ff9f4daa797ed6e38ed64bf6a1f01000000000000000083106125a6577a184f03e93ff9f4daa797ed6e38ed64bf6a1f010000000000000000838161259c5761259b613a35565b5b0492506040810190505b6d04ee2d6d415b85acef810000000083106125e3576d04ee2d6d415b85acef810000000083816125d9576125d8613a35565b5b0492506020810190505b662386f26fc10000831061261257662386f26fc10000838161260857612607613a35565b5b0492506010810190505b6305f5e100831061263b576305f5e100838161263157612630613a35565b5b0492506008810190505b612710831061266057612710838161265657612655613a35565b5b0492506004810190505b60648310612683576064838161267957612678613a35565b5b0492506002810190505b600a8310612692576001810190505b80915050919050565b6040518060c00160405280600073ffffffffffffffffffffffffffffffffffffffff168152602001600073ffffffffffffffffffffffffffffffffffffffff1681526020016000815260200160608152602001600015158152602001600081525090565b612707613a64565b565b6000604051905090565b600080fd5b600080fd5b60007fffffffff0000000000000000000000000000000000000000000000000000000082169050919050565b6127528161271d565b811461275d57600080fd5b50565b60008135905061276f81612749565b92915050565b60006020828403121561278b5761278a612713565b5b600061279984828501612760565b91505092915050565b60008115159050919050565b6127b7816127a2565b82525050565b60006020820190506127d260008301846127ae565b92915050565b600081519050919050565b600082825260208201905092915050565b60005b838110156128125780820151818401526020810190506127f7565b60008484015250505050565b6000601f19601f8301169050919050565b600061283a826127d8565b61284481856127e3565b93506128548185602086016127f4565b61285d8161281e565b840191505092915050565b60006020820190508181036000830152612882818461282f565b905092915050565b6000819050919050565b61289d8161288a565b81146128a857600080fd5b50565b6000813590506128ba81612894565b92915050565b6000602082840312156128d6576128d5612713565b5b60006128e4848285016128ab565b91505092915050565b600073ffffffffffffffffffffffffffffffffffffffff82169050919050565b6000612918826128ed565b9050919050565b6129288161290d565b82525050565b6000602082019050612943600083018461291f565b92915050565b6129528161290d565b811461295d57600080fd5b50565b60008135905061296f81612949565b92915050565b6000806040838503121561298c5761298b612713565b5b600061299a85828601612960565b92505060206129ab858286016128ab565b9150509250929050565b600081519050919050565b600082825260208201905092915050565b6000819050602082019050919050565b6129ea8161290d565b82525050565b6129f98161288a565b82525050565b600082825260208201905092915050565b6000612a1b826127d8565b612a2581856129ff565b9350612a358185602086016127f4565b612a3e8161281e565b840191505092915050565b612a52816127a2565b82525050565b600060c083016000830151612a7060008601826129e1565b506020830151612a8360208601826129e1565b506040830151612a9660408601826129f0565b5060608301518482036060860152612aae8282612a10565b9150506080830151612ac36080860182612a49565b5060a0830151612ad660a08601826129f0565b508091505092915050565b6000612aed8383612a58565b905092915050565b6000602082019050919050565b6000612b0d826129b5565b612b1781856129c0565b935083602082028501612b29856129d1565b8060005b85811015612b655784840389528151612b468582612ae1565b9450612b5183612af5565b925060208a01995050600181019050612b2d565b50829750879550505050505092915050565b60006020820190508181036000830152612b918184612b02565b905092915050565b600080600060608486031215612bb257612bb1612713565b5b6000612bc086828701612960565b9350506020612bd186828701612960565b9250506040612be2868287016128ab565b9150509250925092565b600080fd5b600080fd5b7f4e487b7100000000000000000000000000000000000000000000000000000000600052604160045260246000fd5b612c2e8261281e565b810181811067ffffffffffffffff82111715612c4d57612c4c612bf6565b5b80604052505050565b6000612c60612709565b9050612c6c8282612c25565b919050565b600067ffffffffffffffff821115612c8c57612c8b612bf6565b5b612c958261281e565b9050602081019050919050565b82818337600083830152505050565b6000612cc4612cbf84612c71565b612c56565b905082815260208101848484011115612ce057612cdf612bf1565b5b612ceb848285612ca2565b509392505050565b600082601f830112612d0857612d07612bec565b5b8135612d18848260208601612cb1565b91505092915050565b60008060408385031215612d3857612d37612713565b5b600083013567ffffffffffffffff811115612d5657612d55612718565b5b612d6285828601612cf3565b9250506020612d73858286016128ab565b9150509250929050565b612d868161288a565b82525050565b600060c082019050612da1600083018961291f565b612dae602083018861291f565b612dbb6040830187612d7d565b8181036060830152612dcd818661282f565b9050612ddc60808301856127ae565b612de960a0830184612d7d565b979650505050505050565b600060208284031215612e0a57612e09612713565b5b6000612e1884828501612960565b91505092915050565b6000602082019050612e366000830184612d7d565b92915050565b612e45816127a2565b8114612e5057600080fd5b50565b600081359050612e6281612e3c565b92915050565b60008060408385031215612e7f57612e7e612713565b5b6000612e8d85828601612960565b9250506020612e9e85828601612e53565b9150509250929050565b600067ffffffffffffffff821115612ec357612ec2612bf6565b5b612ecc8261281e565b9050602081019050919050565b6000612eec612ee784612ea8565b612c56565b905082815260208101848484011115612f0857612f07612bf1565b5b612f13848285612ca2565b509392505050565b600082601f830112612f3057612f2f612bec565b5b8135612f40848260208601612ed9565b91505092915050565b60008060008060808587031215612f6357612f62612713565b5b6000612f7187828801612960565b9450506020612f8287828801612960565b9350506040612f93878288016128ab565b925050606085013567ffffffffffffffff811115612fb457612fb3612718565b5b612fc087828801612f1b565b91505092959194509250565b60008060408385031215612fe357612fe2612713565b5b6000612ff185828601612960565b925050602061300285828601612960565b9150509250929050565b60008060006060848603121561302557613024612713565b5b600084013567ffffffffffffffff81111561304357613042612718565b5b61304f86828701612cf3565b9350506020613060868287016128ab565b9250506040613071868287016128ab565b9150509250925092565b7f4e487b7100000000000000000000000000000000000000000000000000000000600052602260045260246000fd5b600060028204905060018216806130c257607f821691505b6020821081036130d5576130d461307b565b5b50919050565b7f4e487b7100000000000000000000000000000000000000000000000000000000600052603260045260246000fd5b7f4e487b7100000000000000000000000000000000000000000000000000000000600052601160045260246000fd5b60006131448261288a565b91507fffffffffffffffffffffffffffffffffffffffffffffffffffffffffffffffff82036131765761317561310a565b5b600182019050919050565b6000606082019050613196600083018661291f565b6131a36020830185612d7d565b6131b0604083018461291f565b949350505050565b7f4e465420616c726561647920736f6c6400000000000000000000000000000000600082015250565b60006131ee6010836127e3565b91506131f9826131b8565b602082019050919050565b6000602082019050818103600083015261321d816131e1565b9050919050565b7f4973756666696369656e742062616c616e636500000000000000000000000000600082015250565b600061325a6013836127e3565b915061326582613224565b602082019050919050565b600060208201905081810360008301526132898161324d565b9050919050565b7f506c656173652073656e64207468652065786163742061736b696e672070726960008201527f636520746f2070726f6365656400000000000000000000000000000000000000602082015250565b60006132ec602d836127e3565b91506132f782613290565b604082019050919050565b6000602082019050818103600083015261331b816132df565b9050919050565b600061332d8261288a565b91506133388361288a565b92508282039050818111156133505761334f61310a565b5b92915050565b7f50726963652073686f756c642062652067726561746572207468616e206c697360008201527f74696e6720707269636500000000000000000000000000000000000000000000602082015250565b60006133b2602a836127e3565b91506133bd82613356565b604082019050919050565b600060208201905081810360008301526133e1816133a5565b9050919050565b6000819050919050565b600067ffffffffffffffff82169050919050565b6000819050919050565b600061342b613426613421846133e8565b613406565b6133f2565b9050919050565b61343b81613410565b82525050565b60006020820190506134566000830184613432565b92915050565b60008190508160005260206000209050919050565b60006020601f8301049050919050565b600082821b905092915050565b6000600883026134be7fffffffffffffffffffffffffffffffffffffffffffffffffffffffffffffffff82613481565b6134c88683613481565b95508019841693508086168417925050509392505050565b60006134fb6134f66134f18461288a565b613406565b61288a565b9050919050565b6000819050919050565b613515836134e0565b61352961352182613502565b84845461348e565b825550505050565b600090565b61353e613531565b61354981848461350c565b505050565b5b8181101561356d57613562600082613536565b60018101905061354f565b5050565b601f8211156135b2576135838161345c565b61358c84613471565b8101602085101561359b578190505b6135af6135a785613471565b83018261354e565b50505b505050565b600082821c905092915050565b60006135d5600019846008026135b7565b1980831691505092915050565b60006135ee83836135c4565b9150826002028217905092915050565b613607826127d8565b67ffffffffffffffff8111156136205761361f612bf6565b5b61362a82546130aa565b613635828285613571565b600060209050601f8311600181146136685760008415613656578287015190505b61366085826135e2565b8655506136c8565b601f1984166136768661345c565b60005b8281101561369e57848901518255600182019150602085019450602081019050613679565b868310156136bb57848901516136b7601f8916826135c4565b8355505b6001600288020188555050505b505050505050565b60008160001c9050919050565b600073ffffffffffffffffffffffffffffffffffffffff82169050919050565b600061371061370b836136d0565b6136dd565b9050919050565b6000819050919050565b600061373461372f836136d0565b613717565b9050919050565b60008154613748816130aa565b61375281866129ff565b9450600182166000811461376d5760018114613783576137b6565b60ff1983168652811515602002860193506137b6565b61378c8561345c565b60005b838110156137ae5781548189015260018201915060208101905061378f565b808801955050505b50505092915050565b600060ff82169050919050565b60006137df6137da836136d0565b6137bf565b9050919050565b600060c0830160008084015490506137fd816136fd565b61380a60008701826129e1565b506001840154905061381b816136fd565b61382860208701826129e1565b506002840154905061383981613721565b61384660408701826129f0565b5060038401858303606087015261385d838261373b565b92505060048401549050613870816137cc565b61387d6080870182612a49565b506005840154905061388e81613721565b61389b60a08701826129f0565b50819250505092915050565b600060208201905081810360008301526138c181846137e6565b905092915050565b600081519050919050565b600082825260208201905092915050565b60006138f0826138c9565b6138fa81856138d4565b935061390a8185602086016127f4565b6139138161281e565b840191505092915050565b6000608082019050613933600083018761291f565b613940602083018661291f565b61394d6040830185612d7d565b818103606083015261395f81846138e5565b905095945050505050565b60008151905061397981612749565b92915050565b60006020828403121561399557613994612713565b5b60006139a38482850161396a565b91505092915050565b600081905092915050565b60006139c2826127d8565b6139cc81856139ac565b93506139dc8185602086016127f4565b80840191505092915050565b60006139f482856139b7565b9150613a0082846139b7565b91508190509392505050565b6000604082019050613a21600083018561291f565b613a2e6020830184612d7d565b9392505050565b7f4e487b7100000000000000000000000000000000000000000000000000000000600052601260045260246000fd5b7f4e487b7100000000000000000000000000000000000000000000000000000000600052605160045260246000fdfea2646970667358221220529c3d2615f0f2885ed0848fdd17080884f297f9a55a596d997e0de446d7950d64736f6c63430008150033",
  "linkReferences": {},
  "deployedLinkReferences": {}
}